{
	"HaloNode.sol": {
		"HaloNode": {
			"abi": [
				{
					"inputs": [],
					"stateMutability": "nonpayable",
					"type": "constructor"
				},
				{
					"anonymous": false,
					"inputs": [
						{
							"indexed": true,
							"internalType": "address",
							"name": "owner",
							"type": "address"
						},
						{
							"indexed": true,
							"internalType": "address",
							"name": "spender",
							"type": "address"
						},
						{
							"indexed": false,
							"internalType": "uint256",
							"name": "value",
							"type": "uint256"
						}
					],
					"name": "Approval",
					"type": "event"
				},
				{
					"anonymous": false,
					"inputs": [
						{
							"indexed": true,
							"internalType": "address",
							"name": "previousOwner",
							"type": "address"
						},
						{
							"indexed": true,
							"internalType": "address",
							"name": "newOwner",
							"type": "address"
						}
					],
					"name": "OwnershipTransferred",
					"type": "event"
				},
				{
					"anonymous": false,
					"inputs": [
						{
							"indexed": true,
							"internalType": "address",
							"name": "from",
							"type": "address"
						},
						{
							"indexed": true,
							"internalType": "address",
							"name": "to",
							"type": "address"
						},
						{
							"indexed": false,
							"internalType": "uint256",
							"name": "value",
							"type": "uint256"
						}
					],
					"name": "Transfer",
					"type": "event"
				},
				{
					"inputs": [],
					"name": "_decimals",
					"outputs": [
						{
							"internalType": "uint8",
							"name": "",
							"type": "uint8"
						}
					],
					"stateMutability": "view",
					"type": "function"
				},
				{
					"inputs": [],
					"name": "_name",
					"outputs": [
						{
							"internalType": "string",
							"name": "",
							"type": "string"
						}
					],
					"stateMutability": "view",
					"type": "function"
				},
				{
					"inputs": [],
					"name": "_symbol",
					"outputs": [
						{
							"internalType": "string",
							"name": "",
							"type": "string"
						}
					],
					"stateMutability": "view",
					"type": "function"
				},
				{
					"inputs": [
						{
							"internalType": "address",
							"name": "account",
							"type": "address"
						}
					],
					"name": "addToBlackList",
					"outputs": [],
					"stateMutability": "nonpayable",
					"type": "function"
				},
				{
					"inputs": [
						{
							"internalType": "address",
							"name": "owner",
							"type": "address"
						},
						{
							"internalType": "address",
							"name": "spender",
							"type": "address"
						}
					],
					"name": "allowance",
					"outputs": [
						{
							"internalType": "uint256",
							"name": "",
							"type": "uint256"
						}
					],
					"stateMutability": "view",
					"type": "function"
				},
				{
					"inputs": [
						{
							"internalType": "address",
							"name": "spender",
							"type": "address"
						},
						{
							"internalType": "uint256",
							"name": "amount",
							"type": "uint256"
						}
					],
					"name": "approve",
					"outputs": [
						{
							"internalType": "bool",
							"name": "",
							"type": "bool"
						}
					],
					"stateMutability": "nonpayable",
					"type": "function"
				},
				{
					"inputs": [
						{
							"internalType": "address",
							"name": "account",
							"type": "address"
						}
					],
					"name": "balanceOf",
					"outputs": [
						{
							"internalType": "uint256",
							"name": "",
							"type": "uint256"
						}
					],
					"stateMutability": "view",
					"type": "function"
				},
				{
					"inputs": [
						{
							"internalType": "uint256",
							"name": "amount",
							"type": "uint256"
						}
					],
					"name": "burn",
					"outputs": [
						{
							"internalType": "bool",
							"name": "",
							"type": "bool"
						}
					],
					"stateMutability": "nonpayable",
					"type": "function"
				},
				{
					"inputs": [],
					"name": "decimals",
					"outputs": [
						{
							"internalType": "uint8",
							"name": "",
							"type": "uint8"
						}
					],
					"stateMutability": "view",
					"type": "function"
				},
				{
					"inputs": [
						{
							"internalType": "address",
							"name": "spender",
							"type": "address"
						},
						{
							"internalType": "uint256",
							"name": "subtractedValue",
							"type": "uint256"
						}
					],
					"name": "decreaseAllowance",
					"outputs": [
						{
							"internalType": "bool",
							"name": "",
							"type": "bool"
						}
					],
					"stateMutability": "nonpayable",
					"type": "function"
				},
				{
					"inputs": [],
					"name": "getOwner",
					"outputs": [
						{
							"internalType": "address",
							"name": "",
							"type": "address"
						}
					],
					"stateMutability": "view",
					"type": "function"
				},
				{
					"inputs": [
						{
							"internalType": "address",
							"name": "spender",
							"type": "address"
						},
						{
							"internalType": "uint256",
							"name": "addedValue",
							"type": "uint256"
						}
					],
					"name": "increaseAllowance",
					"outputs": [
						{
							"internalType": "bool",
							"name": "",
							"type": "bool"
						}
					],
					"stateMutability": "nonpayable",
					"type": "function"
				},
				{
					"inputs": [],
					"name": "managerWallet",
					"outputs": [
						{
							"internalType": "address",
							"name": "",
							"type": "address"
						}
					],
					"stateMutability": "view",
					"type": "function"
				},
				{
					"inputs": [
						{
							"internalType": "uint256",
							"name": "amount",
							"type": "uint256"
						}
					],
					"name": "mint",
					"outputs": [
						{
							"internalType": "bool",
							"name": "",
							"type": "bool"
						}
					],
					"stateMutability": "nonpayable",
					"type": "function"
				},
				{
					"inputs": [],
					"name": "name",
					"outputs": [
						{
							"internalType": "string",
							"name": "",
							"type": "string"
						}
					],
					"stateMutability": "view",
					"type": "function"
				},
				{
					"inputs": [],
					"name": "owner",
					"outputs": [
						{
							"internalType": "address",
							"name": "",
							"type": "address"
						}
					],
					"stateMutability": "view",
					"type": "function"
				},
				{
					"inputs": [
						{
							"internalType": "address",
							"name": "account",
							"type": "address"
						}
					],
					"name": "removeFromBlackList",
					"outputs": [],
					"stateMutability": "nonpayable",
					"type": "function"
				},
				{
					"inputs": [],
					"name": "renounceOwnership",
					"outputs": [],
					"stateMutability": "nonpayable",
					"type": "function"
				},
				{
					"inputs": [],
					"name": "symbol",
					"outputs": [
						{
							"internalType": "string",
							"name": "",
							"type": "string"
						}
					],
					"stateMutability": "view",
					"type": "function"
				},
				{
					"inputs": [],
					"name": "totalSupply",
					"outputs": [
						{
							"internalType": "uint256",
							"name": "",
							"type": "uint256"
						}
					],
					"stateMutability": "view",
					"type": "function"
				},
				{
					"inputs": [
						{
							"internalType": "address",
							"name": "recipient",
							"type": "address"
						},
						{
							"internalType": "uint256",
							"name": "amount",
							"type": "uint256"
						}
					],
					"name": "transfer",
					"outputs": [
						{
							"internalType": "bool",
							"name": "",
							"type": "bool"
						}
					],
					"stateMutability": "nonpayable",
					"type": "function"
				},
				{
					"inputs": [
						{
							"internalType": "address",
							"name": "sender",
							"type": "address"
						},
						{
							"internalType": "address",
							"name": "recipient",
							"type": "address"
						},
						{
							"internalType": "uint256",
							"name": "amount",
							"type": "uint256"
						}
					],
					"name": "transferFrom",
					"outputs": [
						{
							"internalType": "bool",
							"name": "",
							"type": "bool"
						}
					],
					"stateMutability": "nonpayable",
					"type": "function"
				},
				{
					"inputs": [
						{
							"internalType": "address",
							"name": "newOwner",
							"type": "address"
						}
					],
					"name": "transferOwnership",
					"outputs": [],
					"stateMutability": "nonpayable",
					"type": "function"
				}
			],
			"devdoc": {
				"kind": "dev",
				"methods": {
					"allowance(address,address)": {
						"details": "See {BEP20-allowance}."
					},
					"approve(address,uint256)": {
						"details": "See {BEP20-approve}. Requirements: - `spender` cannot be the zero address."
					},
					"balanceOf(address)": {
						"details": "See {BEP20-balanceOf}."
					},
					"burn(uint256)": {
						"details": "Burn `amount` tokens and decreasing the total supply."
					},
					"decimals()": {
						"details": "Returns the token decimals."
					},
					"decreaseAllowance(address,uint256)": {
						"details": "Atomically decreases the allowance granted to `spender` by the caller. This is an alternative to {approve} that can be used as a mitigation for problems described in {BEP20-approve}. Emits an {Approval} event indicating the updated allowance. Requirements: - `spender` cannot be the zero address. - `spender` must have allowance for the caller of at least `subtractedValue`."
					},
					"getOwner()": {
						"details": "Returns the bep token owner."
					},
					"increaseAllowance(address,uint256)": {
						"details": "Atomically increases the allowance granted to `spender` by the caller. This is an alternative to {approve} that can be used as a mitigation for problems described in {BEP20-approve}. Emits an {Approval} event indicating the updated allowance. Requirements: - `spender` cannot be the zero address."
					},
					"mint(uint256)": {
						"details": "Creates `amount` tokens and assigns them to `msg.sender`, increasing the total supply. Requirements - `msg.sender` must be the token owner"
					},
					"name()": {
						"details": "Returns the token name."
					},
					"owner()": {
						"details": "Returns the address of the current owner."
					},
					"renounceOwnership()": {
						"details": "Leaves the contract without owner. It will not be possible to call `onlyOwner` functions anymore. Can only be called by the current owner. NOTE: Renouncing ownership will leave the contract without an owner, thereby removing any functionality that is only available to the owner."
					},
					"symbol()": {
						"details": "Returns the token symbol."
					},
					"totalSupply()": {
						"details": "See {BEP20-totalSupply}."
					},
					"transfer(address,uint256)": {
						"details": "See {BEP20-transfer}. Requirements: - `recipient` cannot be the zero address. - the caller must have a balance of at least `amount`."
					},
					"transferFrom(address,address,uint256)": {
						"details": "See {BEP20-transferFrom}. Emits an {Approval} event indicating the updated allowance. This is not required by the EIP. See the note at the beginning of {BEP20}; Requirements: - `sender` and `recipient` cannot be the zero address. - `sender` must have a balance of at least `amount`. - the caller must have allowance for `sender`'s tokens of at least `amount`."
					},
					"transferOwnership(address)": {
						"details": "Transfers ownership of the contract to a new account (`newOwner`). Can only be called by the current owner."
					}
				},
				"version": 1
			},
			"evm": {
				"assembly": "    /* \"HaloNode.sol\":3216:12226  contract HaloNode is Context, IBEP20, Ownable {\r... */\n  mstore(0x40, 0x80)\n    /* \"HaloNode.sol\":3547:3629  address public managerWallet = payable(0x2c40b38Ef349aea24AA48eD1a6eD3DB3860EfFA3) */\n  0x07\n  dup1\n  sload\n  not(sub(shl(0xa0, 0x01), 0x01))\n  and\n    /* \"HaloNode.sol\":3586:3628  0x2c40b38Ef349aea24AA48eD1a6eD3DB3860EfFA3 */\n  0x2c40b38ef349aea24aa48ed1a6ed3db3860effa3\n    /* \"HaloNode.sol\":3547:3629  address public managerWallet = payable(0x2c40b38Ef349aea24AA48eD1a6eD3DB3860EfFA3) */\n  or\n  swap1\n  sstore\n    /* \"HaloNode.sol\":3686:3927  constructor() {\r... */\n  callvalue\n  dup1\n  iszero\n  tag_1\n  jumpi\n  0x00\n  dup1\n  revert\ntag_1:\n  pop\n    /* \"@openzeppelin/contracts/access/Ownable.sol\":921:953  _transferOwnership(_msgSender()) */\n  tag_5\n    /* \"@openzeppelin/contracts/utils/Context.sol\":719:729  msg.sender */\n  caller\n    /* \"@openzeppelin/contracts/access/Ownable.sol\":921:939  _transferOwnership */\n  tag_8\n    /* \"@openzeppelin/contracts/access/Ownable.sol\":921:953  _transferOwnership(_msgSender()) */\n  jump\t// in\ntag_5:\n    /* \"HaloNode.sol\":3707:3726  _name = \"Halo node\" */\n  0x40\n  dup1\n  mload\n  dup1\n  dup3\n  add\n  swap1\n  swap2\n  mstore\n  0x09\n  dup1\n  dup3\n  mstore\n  shl(0xb8, 0x48616c6f206e6f6465)\n  0x20\n  swap1\n  swap3\n  add\n  swap2\n  dup3\n  mstore\n  tag_10\n  swap2\n    /* \"HaloNode.sol\":3707:3712  _name */\n  0x06\n  swap2\n    /* \"HaloNode.sol\":3707:3726  _name = \"Halo node\" */\n  tag_11\n  jump\t// in\ntag_10:\n  pop\n    /* \"HaloNode.sol\":3733:3749  _symbol = \"Halo\" */\n  0x40\n  dup1\n  mload\n  dup1\n  dup3\n  add\n  swap1\n  swap2\n  mstore\n  0x04\n  dup1\n  dup3\n  mstore\n  shl(0xe0, 0x48616c6f)\n  0x20\n  swap1\n  swap3\n  add\n  swap2\n  dup3\n  mstore\n  tag_12\n  swap2\n    /* \"HaloNode.sol\":3733:3740  _symbol */\n  0x05\n  swap2\n    /* \"HaloNode.sol\":3733:3749  _symbol = \"Halo\" */\n  tag_11\n  jump\t// in\ntag_12:\n  pop\n    /* \"HaloNode.sol\":3756:3765  _decimals */\n  0x04\n    /* \"HaloNode.sol\":3756:3770  _decimals = 18 */\n  dup1\n  sload\n  not(0xff)\n  and\n    /* \"HaloNode.sol\":3768:3770  18 */\n  0x12\n    /* \"HaloNode.sol\":3756:3770  _decimals = 18 */\n  or\n  swap1\n  sstore\n    /* \"HaloNode.sol\":3792:3818  100000000000000 * 10 ** 18 */\n  0x04ee2d6d415b85acef8100000000\n    /* \"HaloNode.sol\":3777:3789  _totalSupply */\n  0x03\n    /* \"HaloNode.sol\":3777:3818  _totalSupply = 100000000000000 * 10 ** 18 */\n  dup2\n  swap1\n  sstore\n    /* \"HaloNode.sol\":3835:3845  msg.sender */\n  caller\n    /* \"HaloNode.sol\":3756:3765  _decimals */\n  0x00\n    /* \"HaloNode.sol\":3825:3846  _balances[msg.sender] */\n  dup2\n  dup2\n  mstore\n    /* \"HaloNode.sol\":3756:3770  _decimals = 18 */\n  0x01\n    /* \"HaloNode.sol\":3825:3846  _balances[msg.sender] */\n  0x20\n  mstore\n  0x40\n  dup1\n  dup3\n  keccak256\n    /* \"HaloNode.sol\":3825:3861  _balances[msg.sender] = _totalSupply */\n  dup5\n  swap1\n  sstore\n    /* \"HaloNode.sol\":3875:3921  Transfer(address(0), msg.sender, _totalSupply) */\n  mload\n    /* \"HaloNode.sol\":3835:3845  msg.sender */\n  swap2\n  swap3\n    /* \"HaloNode.sol\":3756:3765  _decimals */\n  swap1\n  swap2\n    /* \"HaloNode.sol\":3875:3921  Transfer(address(0), msg.sender, _totalSupply) */\n  0xddf252ad1be2c89b69c2b068fc378daa952ba7f163c4a11628f55a4df523b3ef\n  swap2\n  tag_13\n  swap2\n    /* \"#utility.yul\":160:185   */\n  swap1\n  dup2\n  mstore\n    /* \"#utility.yul\":148:150   */\n  0x20\n    /* \"#utility.yul\":133:151   */\n  add\n  swap1\n    /* \"#utility.yul\":14:191   */\n  jump\n    /* \"HaloNode.sol\":3875:3921  Transfer(address(0), msg.sender, _totalSupply) */\ntag_13:\n  mload(0x40)\n  dup1\n  swap2\n  sub\n  swap1\n  log3\n    /* \"HaloNode.sol\":3216:12226  contract HaloNode is Context, IBEP20, Ownable {\r... */\n  jump(tag_29)\n    /* \"@openzeppelin/contracts/access/Ownable.sol\":2270:2457  function _transferOwnership(address newOwner) internal virtual {... */\ntag_8:\n    /* \"@openzeppelin/contracts/access/Ownable.sol\":2343:2359  address oldOwner */\n  0x00\n    /* \"@openzeppelin/contracts/access/Ownable.sol\":2362:2368  _owner */\n  dup1\n  sload\n  sub(shl(0xa0, 0x01), 0x01)\n    /* \"@openzeppelin/contracts/access/Ownable.sol\":2378:2395  _owner = newOwner */\n  dup4\n  dup2\n  and\n  not(sub(shl(0xa0, 0x01), 0x01))\n  dup4\n  and\n  dup2\n  or\n  dup5\n  sstore\n    /* \"@openzeppelin/contracts/access/Ownable.sol\":2410:2450  OwnershipTransferred(oldOwner, newOwner) */\n  mload(0x40)\n    /* \"@openzeppelin/contracts/access/Ownable.sol\":2362:2368  _owner */\n  swap2\n  swap1\n  swap3\n  and\n  swap3\n  dup4\n  swap2\n    /* \"@openzeppelin/contracts/access/Ownable.sol\":2410:2450  OwnershipTransferred(oldOwner, newOwner) */\n  0x8be0079c531659141344cd1fd0a4f28419497f9722a3daafe3b4186f6b6457e0\n  swap2\n    /* \"@openzeppelin/contracts/access/Ownable.sol\":2343:2359  address oldOwner */\n  swap1\n    /* \"@openzeppelin/contracts/access/Ownable.sol\":2410:2450  OwnershipTransferred(oldOwner, newOwner) */\n  log3\n    /* \"@openzeppelin/contracts/access/Ownable.sol\":2333:2457  {... */\n  pop\n    /* \"@openzeppelin/contracts/access/Ownable.sol\":2270:2457  function _transferOwnership(address newOwner) internal virtual {... */\n  pop\n  jump\t// out\n    /* \"HaloNode.sol\":3216:12226  contract HaloNode is Context, IBEP20, Ownable {\r... */\ntag_11:\n  dup3\n  dup1\n  sload\n  tag_18\n  swap1\n  tag_19\n  jump\t// in\ntag_18:\n  swap1\n  0x00\n  mstore\n  keccak256(0x00, 0x20)\n  swap1\n  0x1f\n  add\n  0x20\n  swap1\n  div\n  dup2\n  add\n  swap3\n  dup3\n  tag_21\n  jumpi\n  0x00\n  dup6\n  sstore\n  jump(tag_24)\ntag_21:\n  dup3\n  0x1f\n  lt\n  tag_22\n  jumpi\n  dup1\n  mload\n  not(0xff)\n  and\n  dup4\n  dup1\n  add\n  or\n  dup6\n  sstore\n  jump(tag_24)\ntag_22:\n  dup3\n  dup1\n  add\n  0x01\n  add\n  dup6\n  sstore\n  dup3\n  iszero\n  tag_24\n  jumpi\n  swap2\n  dup3\n  add\ntag_23:\n  dup3\n  dup2\n  gt\n  iszero\n  tag_24\n  jumpi\n  dup3\n  mload\n  dup3\n  sstore\n  swap2\n  0x20\n  add\n  swap2\n  swap1\n  0x01\n  add\n  swap1\n  jump(tag_23)\ntag_24:\n  pop\n  tag_25\n  swap3\n  swap2\n  pop\n  tag_26\n  jump\t// in\ntag_25:\n  pop\n  swap1\n  jump\t// out\ntag_26:\ntag_27:\n  dup1\n  dup3\n  gt\n  iszero\n  tag_25\n  jumpi\n  0x00\n  dup2\n  sstore\n  0x01\n  add\n  jump(tag_27)\n    /* \"#utility.yul\":196:576   */\ntag_19:\n    /* \"#utility.yul\":275:276   */\n  0x01\n    /* \"#utility.yul\":271:283   */\n  dup2\n  dup2\n  shr\n  swap1\n    /* \"#utility.yul\":318:330   */\n  dup3\n  and\n  dup1\n    /* \"#utility.yul\":339:400   */\n  tag_32\n  jumpi\n    /* \"#utility.yul\":393:397   */\n  0x7f\n    /* \"#utility.yul\":385:391   */\n  dup3\n    /* \"#utility.yul\":381:398   */\n  and\n    /* \"#utility.yul\":371:398   */\n  swap2\n  pop\n    /* \"#utility.yul\":339:400   */\ntag_32:\n    /* \"#utility.yul\":446:448   */\n  0x20\n    /* \"#utility.yul\":438:444   */\n  dup3\n    /* \"#utility.yul\":435:449   */\n  lt\n    /* \"#utility.yul\":415:433   */\n  dup2\n    /* \"#utility.yul\":412:450   */\n  eq\n    /* \"#utility.yul\":409:570   */\n  iszero\n  tag_33\n  jumpi\n    /* \"#utility.yul\":492:502   */\n  0x4e487b71\n    /* \"#utility.yul\":487:490   */\n  0xe0\n    /* \"#utility.yul\":483:503   */\n  shl\n    /* \"#utility.yul\":480:481   */\n  0x00\n    /* \"#utility.yul\":473:504   */\n  mstore\n    /* \"#utility.yul\":527:531   */\n  0x22\n    /* \"#utility.yul\":524:525   */\n  0x04\n    /* \"#utility.yul\":517:532   */\n  mstore\n    /* \"#utility.yul\":555:559   */\n  0x24\n    /* \"#utility.yul\":552:553   */\n  0x00\n    /* \"#utility.yul\":545:560   */\n  revert\n    /* \"#utility.yul\":409:570   */\ntag_33:\n  pop\n    /* \"#utility.yul\":196:576   */\n  swap2\n  swap1\n  pop\n  jump\t// out\ntag_29:\n    /* \"HaloNode.sol\":3216:12226  contract HaloNode is Context, IBEP20, Ownable {\r... */\n  dataSize(sub_0)\n  dup1\n  dataOffset(sub_0)\n  0x00\n  codecopy\n  0x00\n  return\nstop\n\nsub_0: assembly {\n        /* \"HaloNode.sol\":3216:12226  contract HaloNode is Context, IBEP20, Ownable {\r... */\n      mstore(0x40, 0x80)\n      callvalue\n      dup1\n      iszero\n      tag_1\n      jumpi\n      0x00\n      dup1\n      revert\n    tag_1:\n      pop\n      jumpi(tag_2, lt(calldatasize, 0x04))\n      shr(0xe0, calldataload(0x00))\n      dup1\n      0x715018a6\n      gt\n      tag_26\n      jumpi\n      dup1\n      0xa457c2d7\n      gt\n      tag_27\n      jumpi\n      dup1\n      0xa457c2d7\n      eq\n      tag_20\n      jumpi\n      dup1\n      0xa9059cbb\n      eq\n      tag_21\n      jumpi\n      dup1\n      0xb09f1266\n      eq\n      tag_22\n      jumpi\n      dup1\n      0xd28d8852\n      eq\n      tag_23\n      jumpi\n      dup1\n      0xdd62ed3e\n      eq\n      tag_24\n      jumpi\n      dup1\n      0xf2fde38b\n      eq\n      tag_25\n      jumpi\n      0x00\n      dup1\n      revert\n    tag_27:\n      dup1\n      0x715018a6\n      eq\n      tag_14\n      jumpi\n      dup1\n      0x893d20e8\n      eq\n      tag_15\n      jumpi\n      dup1\n      0x8da5cb5b\n      eq\n      tag_16\n      jumpi\n      dup1\n      0x95d89b41\n      eq\n      tag_17\n      jumpi\n      dup1\n      0xa0712d68\n      eq\n      tag_18\n      jumpi\n      dup1\n      0xa2179ab0\n      eq\n      tag_19\n      jumpi\n      0x00\n      dup1\n      revert\n    tag_26:\n      dup1\n      0x32424aa3\n      gt\n      tag_28\n      jumpi\n      dup1\n      0x32424aa3\n      eq\n      tag_8\n      jumpi\n      dup1\n      0x39509351\n      eq\n      tag_9\n      jumpi\n      dup1\n      0x417c73a7\n      eq\n      tag_10\n      jumpi\n      dup1\n      0x42966c68\n      eq\n      tag_11\n      jumpi\n      dup1\n      0x4a49ac4c\n      eq\n      tag_12\n      jumpi\n      dup1\n      0x70a08231\n      eq\n      tag_13\n      jumpi\n      0x00\n      dup1\n      revert\n    tag_28:\n      dup1\n      0x06fdde03\n      eq\n      tag_3\n      jumpi\n      dup1\n      0x095ea7b3\n      eq\n      tag_4\n      jumpi\n      dup1\n      0x18160ddd\n      eq\n      tag_5\n      jumpi\n      dup1\n      0x23b872dd\n      eq\n      tag_6\n      jumpi\n      dup1\n      0x313ce567\n      eq\n      tag_7\n      jumpi\n    tag_2:\n      0x00\n      dup1\n      revert\n        /* \"HaloNode.sol\":4640:4728  function name() external override view returns (string memory) {\r... */\n    tag_3:\n      tag_29\n      tag_30\n      jump\t// in\n    tag_29:\n      mload(0x40)\n      tag_31\n      swap2\n      swap1\n      tag_32\n      jump\t// in\n    tag_31:\n      mload(0x40)\n      dup1\n      swap2\n      sub\n      swap1\n      return\n        /* \"HaloNode.sol\":5812:5965  function approve(address spender, uint256 amount) external override returns (bool) {\r... */\n    tag_4:\n      tag_33\n      tag_34\n      calldatasize\n      0x04\n      tag_35\n      jump\t// in\n    tag_34:\n      tag_36\n      jump\t// in\n    tag_33:\n      mload(0x40)\n        /* \"#utility.yul\":1798:1812   */\n      swap1\n      iszero\n        /* \"#utility.yul\":1791:1813   */\n      iszero\n        /* \"#utility.yul\":1773:1814   */\n      dup2\n      mstore\n        /* \"#utility.yul\":1761:1763   */\n      0x20\n        /* \"#utility.yul\":1746:1764   */\n      add\n        /* \"HaloNode.sol\":5812:5965  function approve(address spender, uint256 amount) external override returns (bool) {\r... */\n      tag_31\n        /* \"#utility.yul\":1633:1820   */\n      jump\n        /* \"HaloNode.sol\":4784:4880  function totalSupply() external override view returns (uint256) {\r... */\n    tag_5:\n        /* \"HaloNode.sol\":4862:4874  _totalSupply */\n      sload(0x03)\n        /* \"HaloNode.sol\":4784:4880  function totalSupply() external override view returns (uint256) {\r... */\n    tag_39:\n      mload(0x40)\n        /* \"#utility.yul\":6128:6153   */\n      swap1\n      dup2\n      mstore\n        /* \"#utility.yul\":6116:6118   */\n      0x20\n        /* \"#utility.yul\":6101:6119   */\n      add\n        /* \"HaloNode.sol\":4784:4880  function totalSupply() external override view returns (uint256) {\r... */\n      tag_31\n        /* \"#utility.yul\":5982:6159   */\n      jump\n        /* \"HaloNode.sol\":6410:6798  function transferFrom(address sender, address recipient, uint256 amount) external override returns (bool) {\r... */\n    tag_6:\n      tag_33\n      tag_44\n      calldatasize\n      0x04\n      tag_45\n      jump\t// in\n    tag_44:\n      tag_46\n      jump\t// in\n        /* \"HaloNode.sol\":4350:4438  function decimals() external override view returns (uint8) {\r... */\n    tag_7:\n        /* \"HaloNode.sol\":4423:4432  _decimals */\n      and(0xff, sload(0x04))\n        /* \"HaloNode.sol\":4350:4438  function decimals() external override view returns (uint8) {\r... */\n    tag_48:\n      mload(0x40)\n        /* \"#utility.yul\":6336:6340   */\n      0xff\n        /* \"#utility.yul\":6324:6341   */\n      swap1\n      swap2\n      and\n        /* \"#utility.yul\":6306:6342   */\n      dup2\n      mstore\n        /* \"#utility.yul\":6294:6296   */\n      0x20\n        /* \"#utility.yul\":6279:6297   */\n      add\n        /* \"HaloNode.sol\":4350:4438  function decimals() external override view returns (uint8) {\r... */\n      tag_31\n        /* \"#utility.yul\":6164:6348   */\n      jump\n        /* \"HaloNode.sol\":3462:3484  uint8 public _decimals */\n    tag_8:\n      sload(0x04)\n      tag_48\n      swap1\n      0xff\n      and\n      dup2\n      jump\n        /* \"HaloNode.sol\":7180:7380  function increaseAllowance(address spender, uint256 addedValue) public returns (bool) {\r... */\n    tag_9:\n      tag_33\n      tag_56\n      calldatasize\n      0x04\n      tag_35\n      jump\t// in\n    tag_56:\n      tag_57\n      jump\t// in\n        /* \"HaloNode.sol\":3935:4031  function addToBlackList(address account) public onlyOwner {\r... */\n    tag_10:\n      tag_59\n      tag_60\n      calldatasize\n      0x04\n      tag_61\n      jump\t// in\n    tag_60:\n      tag_62\n      jump\t// in\n    tag_59:\n      stop\n        /* \"HaloNode.sol\":8508:8618  function burn(uint256 amount) public returns (bool) {\r... */\n    tag_11:\n      tag_33\n      tag_64\n      calldatasize\n      0x04\n      tag_65\n      jump\t// in\n    tag_64:\n      tag_66\n      jump\t// in\n        /* \"HaloNode.sol\":4041:4143  function removeFromBlackList(address account) public onlyOwner {\r... */\n    tag_12:\n      tag_59\n      tag_69\n      calldatasize\n      0x04\n      tag_61\n      jump\t// in\n    tag_69:\n      tag_70\n      jump\t// in\n        /* \"HaloNode.sol\":4934:5049  function balanceOf(address account) external override view returns (uint256) {\r... */\n    tag_13:\n      tag_39\n      tag_72\n      calldatasize\n      0x04\n      tag_61\n      jump\t// in\n    tag_72:\n      sub(shl(0xa0, 0x01), 0x01)\n        /* \"HaloNode.sol\":5025:5043  _balances[account] */\n      and\n        /* \"HaloNode.sol\":5002:5009  uint256 */\n      0x00\n        /* \"HaloNode.sol\":5025:5043  _balances[account] */\n      swap1\n      dup2\n      mstore\n        /* \"HaloNode.sol\":5025:5034  _balances */\n      0x01\n        /* \"HaloNode.sol\":5025:5043  _balances[account] */\n      0x20\n      mstore\n      0x40\n      swap1\n      keccak256\n      sload\n      swap1\n        /* \"HaloNode.sol\":4934:5049  function balanceOf(address account) external override view returns (uint256) {\r... */\n      jump\n        /* \"@openzeppelin/contracts/access/Ownable.sol\":1668:1769  function renounceOwnership() public virtual onlyOwner {... */\n    tag_14:\n      tag_59\n      tag_76\n      jump\t// in\n        /* \"HaloNode.sol\":4203:4291  function getOwner() external override view returns (address) {\r... */\n    tag_15:\n        /* \"HaloNode.sol\":4255:4262  address */\n      0x00\n        /* \"@openzeppelin/contracts/access/Ownable.sol\":1108:1114  _owner */\n      sload\n      sub(shl(0xa0, 0x01), 0x01)\n      and\n        /* \"HaloNode.sol\":4203:4291  function getOwner() external override view returns (address) {\r... */\n    tag_77:\n      mload(0x40)\n      sub(shl(0xa0, 0x01), 0x01)\n        /* \"#utility.yul\":1589:1621   */\n      swap1\n      swap2\n      and\n        /* \"#utility.yul\":1571:1622   */\n      dup2\n      mstore\n        /* \"#utility.yul\":1559:1561   */\n      0x20\n        /* \"#utility.yul\":1544:1562   */\n      add\n        /* \"HaloNode.sol\":4203:4291  function getOwner() external override view returns (address) {\r... */\n      tag_31\n        /* \"#utility.yul\":1425:1628   */\n      jump\n        /* \"@openzeppelin/contracts/access/Ownable.sol\":1036:1121  function owner() public view virtual returns (address) {... */\n    tag_16:\n        /* \"@openzeppelin/contracts/access/Ownable.sol\":1082:1089  address */\n      0x00\n        /* \"@openzeppelin/contracts/access/Ownable.sol\":1108:1114  _owner */\n      sload\n      sub(shl(0xa0, 0x01), 0x01)\n      and\n        /* \"@openzeppelin/contracts/access/Ownable.sol\":1036:1121  function owner() public view virtual returns (address) {... */\n      jump(tag_77)\n        /* \"HaloNode.sol\":4495:4587  function symbol() external override view returns (string memory) {\r... */\n    tag_17:\n      tag_29\n      tag_85\n      jump\t// in\n        /* \"HaloNode.sol\":8303:8423  function mint(uint256 amount) public onlyOwner returns (bool) {\r... */\n    tag_18:\n      tag_33\n      tag_88\n      calldatasize\n      0x04\n      tag_65\n      jump\t// in\n    tag_88:\n      tag_89\n      jump\t// in\n        /* \"HaloNode.sol\":3547:3629  address public managerWallet = payable(0x2c40b38Ef349aea24AA48eD1a6eD3DB3860EfFA3) */\n    tag_19:\n      sload(0x07)\n      tag_77\n      swap1\n      sub(shl(0xa0, 0x01), 0x01)\n      and\n      dup2\n      jump\n        /* \"HaloNode.sol\":7852:8103  function decreaseAllowance(address spender, uint256 subtractedValue) public returns (bool) {\r... */\n    tag_20:\n      tag_33\n      tag_95\n      calldatasize\n      0x04\n      tag_35\n      jump\t// in\n    tag_95:\n      tag_96\n      jump\t// in\n        /* \"HaloNode.sol\":5243:5489  function transfer(address recipient, uint256 amount) external override returns (bool) {\r... */\n    tag_21:\n      tag_33\n      tag_99\n      calldatasize\n      0x04\n      tag_35\n      jump\t// in\n    tag_99:\n      tag_100\n      jump\t// in\n        /* \"HaloNode.sol\":3489:3510  string public _symbol */\n    tag_22:\n      tag_29\n      tag_103\n      jump\t// in\n        /* \"HaloNode.sol\":3515:3534  string public _name */\n    tag_23:\n      tag_29\n      tag_106\n      jump\t// in\n        /* \"HaloNode.sol\":5543:5682  function allowance(address owner, address spender) external override view returns (uint256) {\r... */\n    tag_24:\n      tag_39\n      tag_109\n      calldatasize\n      0x04\n      tag_110\n      jump\t// in\n    tag_109:\n      sub(shl(0xa0, 0x01), 0x01)\n        /* \"HaloNode.sol\":5649:5667  _allowances[owner] */\n      swap2\n      dup3\n      and\n        /* \"HaloNode.sol\":5626:5633  uint256 */\n      0x00\n        /* \"HaloNode.sol\":5649:5667  _allowances[owner] */\n      swap1\n      dup2\n      mstore\n        /* \"HaloNode.sol\":5649:5660  _allowances */\n      0x02\n        /* \"HaloNode.sol\":5649:5667  _allowances[owner] */\n      0x20\n      swap1\n      dup2\n      mstore\n      0x40\n      dup1\n      dup4\n      keccak256\n        /* \"HaloNode.sol\":5649:5676  _allowances[owner][spender] */\n      swap4\n      swap1\n      swap5\n      and\n      dup3\n      mstore\n      swap2\n      swap1\n      swap2\n      mstore\n      keccak256\n      sload\n      swap1\n        /* \"HaloNode.sol\":5543:5682  function allowance(address owner, address spender) external override view returns (uint256) {\r... */\n      jump\n        /* \"@openzeppelin/contracts/access/Ownable.sol\":1918:2116  function transferOwnership(address newOwner) public virtual onlyOwner {... */\n    tag_25:\n      tag_59\n      tag_114\n      calldatasize\n      0x04\n      tag_61\n      jump\t// in\n    tag_114:\n      tag_115\n      jump\t// in\n        /* \"HaloNode.sol\":4640:4728  function name() external override view returns (string memory) {\r... */\n    tag_30:\n        /* \"HaloNode.sol\":4688:4701  string memory */\n      0x60\n        /* \"HaloNode.sol\":4717:4722  _name */\n      0x06\n        /* \"HaloNode.sol\":4710:4722  return _name */\n      dup1\n      sload\n      tag_117\n      swap1\n      tag_118\n      jump\t// in\n    tag_117:\n      dup1\n      0x1f\n      add\n      0x20\n      dup1\n      swap2\n      div\n      mul\n      0x20\n      add\n      mload(0x40)\n      swap1\n      dup2\n      add\n      0x40\n      mstore\n      dup1\n      swap3\n      swap2\n      swap1\n      dup2\n      dup2\n      mstore\n      0x20\n      add\n      dup3\n      dup1\n      sload\n      tag_119\n      swap1\n      tag_118\n      jump\t// in\n    tag_119:\n      dup1\n      iszero\n      tag_120\n      jumpi\n      dup1\n      0x1f\n      lt\n      tag_121\n      jumpi\n      0x0100\n      dup1\n      dup4\n      sload\n      div\n      mul\n      dup4\n      mstore\n      swap2\n      0x20\n      add\n      swap2\n      jump(tag_120)\n    tag_121:\n      dup3\n      add\n      swap2\n      swap1\n      0x00\n      mstore\n      keccak256(0x00, 0x20)\n      swap1\n    tag_122:\n      dup2\n      sload\n      dup2\n      mstore\n      swap1\n      0x01\n      add\n      swap1\n      0x20\n      add\n      dup1\n      dup4\n      gt\n      tag_122\n      jumpi\n      dup3\n      swap1\n      sub\n      0x1f\n      and\n      dup3\n      add\n      swap2\n    tag_120:\n      pop\n      pop\n      pop\n      pop\n      pop\n      swap1\n      pop\n        /* \"HaloNode.sol\":4640:4728  function name() external override view returns (string memory) {\r... */\n      swap1\n      jump\t// out\n        /* \"HaloNode.sol\":5812:5965  function approve(address spender, uint256 amount) external override returns (bool) {\r... */\n    tag_36:\n        /* \"HaloNode.sol\":5889:5893  bool */\n      0x00\n        /* \"HaloNode.sol\":5902:5941  _approve(_msgSender(), spender, amount) */\n      tag_124\n        /* \"@openzeppelin/contracts/utils/Context.sol\":719:729  msg.sender */\n      caller\n        /* \"HaloNode.sol\":5925:5932  spender */\n      dup5\n        /* \"HaloNode.sol\":5934:5940  amount */\n      dup5\n        /* \"HaloNode.sol\":5902:5910  _approve */\n      tag_127\n        /* \"HaloNode.sol\":5902:5941  _approve(_msgSender(), spender, amount) */\n      jump\t// in\n    tag_124:\n      pop\n        /* \"HaloNode.sol\":5955:5959  true */\n      0x01\n        /* \"HaloNode.sol\":5812:5965  function approve(address spender, uint256 amount) external override returns (bool) {\r... */\n      swap3\n      swap2\n      pop\n      pop\n      jump\t// out\n        /* \"HaloNode.sol\":6410:6798  function transferFrom(address sender, address recipient, uint256 amount) external override returns (bool) {\r... */\n    tag_46:\n      sub(shl(0xa0, 0x01), 0x01)\n        /* \"HaloNode.sol\":6531:6551  blackList[recipient] */\n      dup3\n      and\n        /* \"HaloNode.sol\":6510:6514  bool */\n      0x00\n        /* \"HaloNode.sol\":6531:6551  blackList[recipient] */\n      swap1\n      dup2\n      mstore\n        /* \"HaloNode.sol\":6531:6540  blackList */\n      0x08\n        /* \"HaloNode.sol\":6531:6551  blackList[recipient] */\n      0x20\n      mstore\n      0x40\n      dup2\n      keccak256\n      sload\n      0xff\n      and\n        /* \"HaloNode.sol\":6531:6560  blackList[recipient] == false */\n      iszero\n        /* \"HaloNode.sol\":6523:6603  require(blackList[recipient] == false, \"Error: transfer from blacklist address\") */\n      tag_130\n      jumpi\n      mload(0x40)\n      shl(0xe5, 0x461bcd)\n      dup2\n      mstore\n      0x04\n      add\n      tag_131\n      swap1\n      tag_132\n      jump\t// in\n    tag_131:\n      mload(0x40)\n      dup1\n      swap2\n      sub\n      swap1\n      revert\n    tag_130:\n        /* \"HaloNode.sol\":6610:6646  _transfer(sender, recipient, amount) */\n      tag_133\n        /* \"HaloNode.sol\":6620:6626  sender */\n      dup5\n        /* \"HaloNode.sol\":6628:6637  recipient */\n      dup5\n        /* \"HaloNode.sol\":6639:6645  amount */\n      dup5\n        /* \"HaloNode.sol\":6610:6619  _transfer */\n      tag_134\n        /* \"HaloNode.sol\":6610:6646  _transfer(sender, recipient, amount) */\n      jump\t// in\n    tag_133:\n        /* \"HaloNode.sol\":6653:6774  _approve(sender, _msgSender(), _allowances[sender][_msgSender()].sub(amount, \"BEP20: transfer amount exceeds allowance\")) */\n      tag_135\n        /* \"HaloNode.sol\":6662:6668  sender */\n      dup5\n        /* \"@openzeppelin/contracts/utils/Context.sol\":719:729  msg.sender */\n      caller\n        /* \"HaloNode.sol\":6684:6773  _allowances[sender][_msgSender()].sub(amount, \"BEP20: transfer amount exceeds allowance\") */\n      tag_137\n        /* \"HaloNode.sol\":6722:6728  amount */\n      dup6\n        /* \"HaloNode.sol\":6684:6773  _allowances[sender][_msgSender()].sub(amount, \"BEP20: transfer amount exceeds allowance\") */\n      mload(0x40)\n      dup1\n      0x60\n      add\n      0x40\n      mstore\n      dup1\n      0x28\n      dup2\n      mstore\n      0x20\n      add\n      data_4f3506f4ba71c79c3cbd442a3afeb30e9b27af2d84e116a4385b34e267d2287e\n      0x28\n      swap2\n      codecopy\n      sub(shl(0xa0, 0x01), 0x01)\n        /* \"HaloNode.sol\":6684:6703  _allowances[sender] */\n      dup11\n      and\n      0x00\n      swap1\n      dup2\n      mstore\n        /* \"HaloNode.sol\":6684:6695  _allowances */\n      0x02\n        /* \"HaloNode.sol\":6684:6703  _allowances[sender] */\n      0x20\n      swap1\n      dup2\n      mstore\n      0x40\n      dup1\n      dup4\n      keccak256\n        /* \"@openzeppelin/contracts/utils/Context.sol\":719:729  msg.sender */\n      caller\n        /* \"HaloNode.sol\":6684:6717  _allowances[sender][_msgSender()] */\n      dup5\n      mstore\n      swap1\n      swap2\n      mstore\n      swap1\n      keccak256\n      sload\n      swap2\n      swap1\n        /* \"HaloNode.sol\":6684:6721  _allowances[sender][_msgSender()].sub */\n      tag_139\n        /* \"HaloNode.sol\":6684:6773  _allowances[sender][_msgSender()].sub(amount, \"BEP20: transfer amount exceeds allowance\") */\n      jump\t// in\n    tag_137:\n        /* \"HaloNode.sol\":6653:6661  _approve */\n      tag_127\n        /* \"HaloNode.sol\":6653:6774  _approve(sender, _msgSender(), _allowances[sender][_msgSender()].sub(amount, \"BEP20: transfer amount exceeds allowance\")) */\n      jump\t// in\n    tag_135:\n      pop\n        /* \"HaloNode.sol\":6788:6792  true */\n      0x01\n        /* \"HaloNode.sol\":6410:6798  function transferFrom(address sender, address recipient, uint256 amount) external override returns (bool) {\r... */\n      swap4\n      swap3\n      pop\n      pop\n      pop\n      jump\t// out\n        /* \"HaloNode.sol\":7180:7380  function increaseAllowance(address spender, uint256 addedValue) public returns (bool) {\r... */\n    tag_57:\n        /* \"@openzeppelin/contracts/utils/Context.sol\":719:729  msg.sender */\n      caller\n        /* \"HaloNode.sol\":7260:7264  bool */\n      0x00\n        /* \"HaloNode.sol\":7305:7330  _allowances[_msgSender()] */\n      dup2\n      dup2\n      mstore\n        /* \"HaloNode.sol\":7305:7316  _allowances */\n      0x02\n        /* \"HaloNode.sol\":7305:7330  _allowances[_msgSender()] */\n      0x20\n      swap1\n      dup2\n      mstore\n      0x40\n      dup1\n      dup4\n      keccak256\n      sub(shl(0xa0, 0x01), 0x01)\n        /* \"HaloNode.sol\":7305:7339  _allowances[_msgSender()][spender] */\n      dup8\n      and\n      dup5\n      mstore\n      swap1\n      swap2\n      mstore\n      dup2\n      keccak256\n      sload\n        /* \"HaloNode.sol\":7260:7264  bool */\n      swap1\n      swap2\n        /* \"HaloNode.sol\":7273:7356  _approve(_msgSender(), spender, _allowances[_msgSender()][spender].add(addedValue)) */\n      tag_124\n      swap2\n        /* \"HaloNode.sol\":7296:7303  spender */\n      dup6\n      swap1\n        /* \"HaloNode.sol\":7305:7355  _allowances[_msgSender()][spender].add(addedValue) */\n      tag_137\n      swap1\n        /* \"HaloNode.sol\":7344:7354  addedValue */\n      dup7\n        /* \"HaloNode.sol\":7305:7343  _allowances[_msgSender()][spender].add */\n      tag_146\n        /* \"HaloNode.sol\":7305:7355  _allowances[_msgSender()][spender].add(addedValue) */\n      jump\t// in\n        /* \"HaloNode.sol\":3935:4031  function addToBlackList(address account) public onlyOwner {\r... */\n    tag_62:\n        /* \"@openzeppelin/contracts/access/Ownable.sol\":1082:1089  address */\n      0x00\n        /* \"@openzeppelin/contracts/access/Ownable.sol\":1108:1114  _owner */\n      sload\n      sub(shl(0xa0, 0x01), 0x01)\n      and\n        /* \"@openzeppelin/contracts/utils/Context.sol\":719:729  msg.sender */\n      caller\n        /* \"@openzeppelin/contracts/access/Ownable.sol\":1248:1271  owner() == _msgSender() */\n      eq\n        /* \"@openzeppelin/contracts/access/Ownable.sol\":1240:1308  require(owner() == _msgSender(), \"Ownable: caller is not the owner\") */\n      tag_150\n      jumpi\n      mload(0x40)\n      shl(0xe5, 0x461bcd)\n      dup2\n      mstore\n      0x04\n      add\n      tag_131\n      swap1\n      tag_152\n      jump\t// in\n    tag_150:\n      sub(shl(0xa0, 0x01), 0x01)\n        /* \"HaloNode.sol\":4000:4018  blackList[account] */\n      and\n      0x00\n      swap1\n      dup2\n      mstore\n        /* \"HaloNode.sol\":4000:4009  blackList */\n      0x08\n        /* \"HaloNode.sol\":4000:4018  blackList[account] */\n      0x20\n      mstore\n      0x40\n      swap1\n      keccak256\n        /* \"HaloNode.sol\":4000:4025  blackList[account] = true */\n      dup1\n      sload\n      not(0xff)\n      and\n        /* \"HaloNode.sol\":4021:4025  true */\n      0x01\n        /* \"HaloNode.sol\":4000:4025  blackList[account] = true */\n      or\n      swap1\n      sstore\n        /* \"HaloNode.sol\":3935:4031  function addToBlackList(address account) public onlyOwner {\r... */\n      jump\t// out\n        /* \"HaloNode.sol\":8508:8618  function burn(uint256 amount) public returns (bool) {\r... */\n    tag_66:\n        /* \"HaloNode.sol\":8554:8558  bool */\n      0x00\n        /* \"HaloNode.sol\":8567:8594  _burn(_msgSender(), amount) */\n      tag_155\n        /* \"@openzeppelin/contracts/utils/Context.sol\":719:729  msg.sender */\n      caller\n        /* \"HaloNode.sol\":8587:8593  amount */\n      dup4\n        /* \"HaloNode.sol\":8567:8572  _burn */\n      tag_157\n        /* \"HaloNode.sol\":8567:8594  _burn(_msgSender(), amount) */\n      jump\t// in\n    tag_155:\n      pop\n        /* \"HaloNode.sol\":8608:8612  true */\n      0x01\n      swap2\n        /* \"HaloNode.sol\":8508:8618  function burn(uint256 amount) public returns (bool) {\r... */\n      swap1\n      pop\n      jump\t// out\n        /* \"HaloNode.sol\":4041:4143  function removeFromBlackList(address account) public onlyOwner {\r... */\n    tag_70:\n        /* \"@openzeppelin/contracts/access/Ownable.sol\":1082:1089  address */\n      0x00\n        /* \"@openzeppelin/contracts/access/Ownable.sol\":1108:1114  _owner */\n      sload\n      sub(shl(0xa0, 0x01), 0x01)\n      and\n        /* \"@openzeppelin/contracts/utils/Context.sol\":719:729  msg.sender */\n      caller\n        /* \"@openzeppelin/contracts/access/Ownable.sol\":1248:1271  owner() == _msgSender() */\n      eq\n        /* \"@openzeppelin/contracts/access/Ownable.sol\":1240:1308  require(owner() == _msgSender(), \"Ownable: caller is not the owner\") */\n      tag_161\n      jumpi\n      mload(0x40)\n      shl(0xe5, 0x461bcd)\n      dup2\n      mstore\n      0x04\n      add\n      tag_131\n      swap1\n      tag_152\n      jump\t// in\n    tag_161:\n      sub(shl(0xa0, 0x01), 0x01)\n        /* \"HaloNode.sol\":4111:4129  blackList[account] */\n      and\n        /* \"HaloNode.sol\":4132:4137  false */\n      0x00\n        /* \"HaloNode.sol\":4111:4129  blackList[account] */\n      swap1\n      dup2\n      mstore\n        /* \"HaloNode.sol\":4111:4120  blackList */\n      0x08\n        /* \"HaloNode.sol\":4111:4129  blackList[account] */\n      0x20\n      mstore\n      0x40\n      swap1\n      keccak256\n        /* \"HaloNode.sol\":4111:4137  blackList[account] = false */\n      dup1\n      sload\n      not(0xff)\n      and\n      swap1\n      sstore\n        /* \"HaloNode.sol\":4041:4143  function removeFromBlackList(address account) public onlyOwner {\r... */\n      jump\t// out\n        /* \"@openzeppelin/contracts/access/Ownable.sol\":1668:1769  function renounceOwnership() public virtual onlyOwner {... */\n    tag_76:\n        /* \"@openzeppelin/contracts/access/Ownable.sol\":1082:1089  address */\n      0x00\n        /* \"@openzeppelin/contracts/access/Ownable.sol\":1108:1114  _owner */\n      sload\n      sub(shl(0xa0, 0x01), 0x01)\n      and\n        /* \"@openzeppelin/contracts/utils/Context.sol\":719:729  msg.sender */\n      caller\n        /* \"@openzeppelin/contracts/access/Ownable.sol\":1248:1271  owner() == _msgSender() */\n      eq\n        /* \"@openzeppelin/contracts/access/Ownable.sol\":1240:1308  require(owner() == _msgSender(), \"Ownable: caller is not the owner\") */\n      tag_168\n      jumpi\n      mload(0x40)\n      shl(0xe5, 0x461bcd)\n      dup2\n      mstore\n      0x04\n      add\n      tag_131\n      swap1\n      tag_152\n      jump\t// in\n    tag_168:\n        /* \"@openzeppelin/contracts/access/Ownable.sol\":1732:1762  _transferOwnership(address(0)) */\n      tag_171\n        /* \"@openzeppelin/contracts/access/Ownable.sol\":1759:1760  0 */\n      0x00\n        /* \"@openzeppelin/contracts/access/Ownable.sol\":1732:1750  _transferOwnership */\n      tag_172\n        /* \"@openzeppelin/contracts/access/Ownable.sol\":1732:1762  _transferOwnership(address(0)) */\n      jump\t// in\n    tag_171:\n        /* \"@openzeppelin/contracts/access/Ownable.sol\":1668:1769  function renounceOwnership() public virtual onlyOwner {... */\n      jump\t// out\n        /* \"HaloNode.sol\":4495:4587  function symbol() external override view returns (string memory) {\r... */\n    tag_85:\n        /* \"HaloNode.sol\":4545:4558  string memory */\n      0x60\n        /* \"HaloNode.sol\":4574:4581  _symbol */\n      0x05\n        /* \"HaloNode.sol\":4567:4581  return _symbol */\n      dup1\n      sload\n      tag_117\n      swap1\n      tag_118\n      jump\t// in\n        /* \"HaloNode.sol\":8303:8423  function mint(uint256 amount) public onlyOwner returns (bool) {\r... */\n    tag_89:\n        /* \"HaloNode.sol\":8359:8363  bool */\n      0x00\n        /* \"@openzeppelin/contracts/access/Ownable.sol\":1108:1114  _owner */\n      dup1\n      sload\n      sub(shl(0xa0, 0x01), 0x01)\n      and\n        /* \"@openzeppelin/contracts/utils/Context.sol\":719:729  msg.sender */\n      caller\n        /* \"@openzeppelin/contracts/access/Ownable.sol\":1248:1271  owner() == _msgSender() */\n      eq\n        /* \"@openzeppelin/contracts/access/Ownable.sol\":1240:1308  require(owner() == _msgSender(), \"Ownable: caller is not the owner\") */\n      tag_185\n      jumpi\n      mload(0x40)\n      shl(0xe5, 0x461bcd)\n      dup2\n      mstore\n      0x04\n      add\n      tag_131\n      swap1\n      tag_152\n      jump\t// in\n    tag_185:\n        /* \"HaloNode.sol\":8372:8399  _mint(_msgSender(), amount) */\n      tag_155\n        /* \"@openzeppelin/contracts/utils/Context.sol\":719:729  msg.sender */\n      caller\n        /* \"HaloNode.sol\":8392:8398  amount */\n      dup4\n        /* \"HaloNode.sol\":8372:8377  _mint */\n      tag_190\n        /* \"HaloNode.sol\":8372:8399  _mint(_msgSender(), amount) */\n      jump\t// in\n        /* \"@openzeppelin/contracts/access/Ownable.sol\":1318:1319  _ */\n    tag_187:\n        /* \"HaloNode.sol\":8303:8423  function mint(uint256 amount) public onlyOwner returns (bool) {\r... */\n      swap2\n      swap1\n      pop\n      jump\t// out\n        /* \"HaloNode.sol\":7852:8103  function decreaseAllowance(address spender, uint256 subtractedValue) public returns (bool) {\r... */\n    tag_96:\n        /* \"HaloNode.sol\":7937:7941  bool */\n      0x00\n        /* \"HaloNode.sol\":7950:8079  _approve(_msgSender(), spender, _allowances[_msgSender()][spender].sub(subtractedValue, \"BEP20: decreased allowance below zero\")) */\n      tag_124\n        /* \"@openzeppelin/contracts/utils/Context.sol\":719:729  msg.sender */\n      caller\n        /* \"HaloNode.sol\":7973:7980  spender */\n      dup5\n        /* \"HaloNode.sol\":7982:8078  _allowances[_msgSender()][spender].sub(subtractedValue, \"BEP20: decreased allowance below zero\") */\n      tag_137\n        /* \"HaloNode.sol\":8021:8036  subtractedValue */\n      dup6\n        /* \"HaloNode.sol\":7982:8078  _allowances[_msgSender()][spender].sub(subtractedValue, \"BEP20: decreased allowance below zero\") */\n      mload(0x40)\n      dup1\n      0x60\n      add\n      0x40\n      mstore\n      dup1\n      0x25\n      dup2\n      mstore\n      0x20\n      add\n      data_b7060b3538dcd3ddc8a941c91636a8115a1aa46914747fd9809d543bbb46cd22\n      0x25\n      swap2\n      codecopy\n        /* \"@openzeppelin/contracts/utils/Context.sol\":719:729  msg.sender */\n      caller\n        /* \"HaloNode.sol\":7982:8007  _allowances[_msgSender()] */\n      0x00\n      swap1\n      dup2\n      mstore\n        /* \"HaloNode.sol\":7982:7993  _allowances */\n      0x02\n        /* \"HaloNode.sol\":7982:8007  _allowances[_msgSender()] */\n      0x20\n      swap1\n      dup2\n      mstore\n      0x40\n      dup1\n      dup4\n      keccak256\n      sub(shl(0xa0, 0x01), 0x01)\n        /* \"HaloNode.sol\":7982:8016  _allowances[_msgSender()][spender] */\n      dup14\n      and\n      dup5\n      mstore\n      swap1\n      swap2\n      mstore\n      swap1\n      keccak256\n      sload\n      swap2\n      swap1\n        /* \"HaloNode.sol\":7982:8020  _allowances[_msgSender()][spender].sub */\n      tag_139\n        /* \"HaloNode.sol\":7982:8078  _allowances[_msgSender()][spender].sub(subtractedValue, \"BEP20: decreased allowance below zero\") */\n      jump\t// in\n        /* \"HaloNode.sol\":5243:5489  function transfer(address recipient, uint256 amount) external override returns (bool) {\r... */\n    tag_100:\n      sub(shl(0xa0, 0x01), 0x01)\n        /* \"HaloNode.sol\":5344:5364  blackList[recipient] */\n      dup3\n      and\n        /* \"HaloNode.sol\":5323:5327  bool */\n      0x00\n        /* \"HaloNode.sol\":5344:5364  blackList[recipient] */\n      swap1\n      dup2\n      mstore\n        /* \"HaloNode.sol\":5344:5353  blackList */\n      0x08\n        /* \"HaloNode.sol\":5344:5364  blackList[recipient] */\n      0x20\n      mstore\n      0x40\n      dup2\n      keccak256\n      sload\n      0xff\n      and\n        /* \"HaloNode.sol\":5344:5373  blackList[recipient] == false */\n      iszero\n        /* \"HaloNode.sol\":5336:5416  require(blackList[recipient] == false, \"Error: transfer from blacklist address\") */\n      tag_197\n      jumpi\n      mload(0x40)\n      shl(0xe5, 0x461bcd)\n      dup2\n      mstore\n      0x04\n      add\n      tag_131\n      swap1\n      tag_132\n      jump\t// in\n    tag_197:\n        /* \"HaloNode.sol\":5423:5465  _transfer(_msgSender(), recipient, amount) */\n      tag_124\n        /* \"@openzeppelin/contracts/utils/Context.sol\":719:729  msg.sender */\n      caller\n        /* \"HaloNode.sol\":5447:5456  recipient */\n      dup5\n        /* \"HaloNode.sol\":5458:5464  amount */\n      dup5\n        /* \"HaloNode.sol\":5423:5432  _transfer */\n      tag_134\n        /* \"HaloNode.sol\":5423:5465  _transfer(_msgSender(), recipient, amount) */\n      jump\t// in\n        /* \"HaloNode.sol\":3489:3510  string public _symbol */\n    tag_103:\n      0x05\n      dup1\n      sload\n      tag_201\n      swap1\n      tag_118\n      jump\t// in\n    tag_201:\n      dup1\n      0x1f\n      add\n      0x20\n      dup1\n      swap2\n      div\n      mul\n      0x20\n      add\n      mload(0x40)\n      swap1\n      dup2\n      add\n      0x40\n      mstore\n      dup1\n      swap3\n      swap2\n      swap1\n      dup2\n      dup2\n      mstore\n      0x20\n      add\n      dup3\n      dup1\n      sload\n      tag_202\n      swap1\n      tag_118\n      jump\t// in\n    tag_202:\n      dup1\n      iszero\n      tag_203\n      jumpi\n      dup1\n      0x1f\n      lt\n      tag_204\n      jumpi\n      0x0100\n      dup1\n      dup4\n      sload\n      div\n      mul\n      dup4\n      mstore\n      swap2\n      0x20\n      add\n      swap2\n      jump(tag_203)\n    tag_204:\n      dup3\n      add\n      swap2\n      swap1\n      0x00\n      mstore\n      keccak256(0x00, 0x20)\n      swap1\n    tag_205:\n      dup2\n      sload\n      dup2\n      mstore\n      swap1\n      0x01\n      add\n      swap1\n      0x20\n      add\n      dup1\n      dup4\n      gt\n      tag_205\n      jumpi\n      dup3\n      swap1\n      sub\n      0x1f\n      and\n      dup3\n      add\n      swap2\n    tag_203:\n      pop\n      pop\n      pop\n      pop\n      pop\n      dup2\n      jump\t// out\n        /* \"HaloNode.sol\":3515:3534  string public _name */\n    tag_106:\n      0x06\n      dup1\n      sload\n      tag_201\n      swap1\n      tag_118\n      jump\t// in\n        /* \"@openzeppelin/contracts/access/Ownable.sol\":1918:2116  function transferOwnership(address newOwner) public virtual onlyOwner {... */\n    tag_115:\n        /* \"@openzeppelin/contracts/access/Ownable.sol\":1082:1089  address */\n      0x00\n        /* \"@openzeppelin/contracts/access/Ownable.sol\":1108:1114  _owner */\n      sload\n      sub(shl(0xa0, 0x01), 0x01)\n      and\n        /* \"@openzeppelin/contracts/utils/Context.sol\":719:729  msg.sender */\n      caller\n        /* \"@openzeppelin/contracts/access/Ownable.sol\":1248:1271  owner() == _msgSender() */\n      eq\n        /* \"@openzeppelin/contracts/access/Ownable.sol\":1240:1308  require(owner() == _msgSender(), \"Ownable: caller is not the owner\") */\n      tag_215\n      jumpi\n      mload(0x40)\n      shl(0xe5, 0x461bcd)\n      dup2\n      mstore\n      0x04\n      add\n      tag_131\n      swap1\n      tag_152\n      jump\t// in\n    tag_215:\n      sub(shl(0xa0, 0x01), 0x01)\n        /* \"@openzeppelin/contracts/access/Ownable.sol\":2006:2028  newOwner != address(0) */\n      dup2\n      and\n        /* \"@openzeppelin/contracts/access/Ownable.sol\":1998:2071  require(newOwner != address(0), \"Ownable: new owner is the zero address\") */\n      tag_218\n      jumpi\n      mload(0x40)\n      shl(0xe5, 0x461bcd)\n      dup2\n      mstore\n        /* \"#utility.yul\":3440:3442   */\n      0x20\n        /* \"@openzeppelin/contracts/access/Ownable.sol\":1998:2071  require(newOwner != address(0), \"Ownable: new owner is the zero address\") */\n      0x04\n      dup3\n      add\n        /* \"#utility.yul\":3422:3443   */\n      mstore\n        /* \"#utility.yul\":3479:3481   */\n      0x26\n        /* \"#utility.yul\":3459:3477   */\n      0x24\n      dup3\n      add\n        /* \"#utility.yul\":3452:3482   */\n      mstore\n        /* \"#utility.yul\":3518:3552   */\n      0x4f776e61626c653a206e6577206f776e657220697320746865207a65726f2061\n        /* \"#utility.yul\":3498:3516   */\n      0x44\n      dup3\n      add\n        /* \"#utility.yul\":3491:3553   */\n      mstore\n      shl(0xd0, 0x646472657373)\n        /* \"#utility.yul\":3569:3587   */\n      0x64\n      dup3\n      add\n        /* \"#utility.yul\":3562:3598   */\n      mstore\n        /* \"#utility.yul\":3615:3634   */\n      0x84\n      add\n        /* \"@openzeppelin/contracts/access/Ownable.sol\":1998:2071  require(newOwner != address(0), \"Ownable: new owner is the zero address\") */\n      tag_131\n        /* \"#utility.yul\":3238:3640   */\n      jump\n        /* \"@openzeppelin/contracts/access/Ownable.sol\":1998:2071  require(newOwner != address(0), \"Ownable: new owner is the zero address\") */\n    tag_218:\n        /* \"@openzeppelin/contracts/access/Ownable.sol\":2081:2109  _transferOwnership(newOwner) */\n      tag_221\n        /* \"@openzeppelin/contracts/access/Ownable.sol\":2100:2108  newOwner */\n      dup2\n        /* \"@openzeppelin/contracts/access/Ownable.sol\":2081:2099  _transferOwnership */\n      tag_172\n        /* \"@openzeppelin/contracts/access/Ownable.sol\":2081:2109  _transferOwnership(newOwner) */\n      jump\t// in\n    tag_221:\n        /* \"@openzeppelin/contracts/access/Ownable.sol\":1918:2116  function transferOwnership(address newOwner) public virtual onlyOwner {... */\n      pop\n      jump\t// out\n        /* \"HaloNode.sol\":11509:11829  function _approve(address owner, address spender, uint256 amount) internal {\r... */\n    tag_127:\n      sub(shl(0xa0, 0x01), 0x01)\n        /* \"HaloNode.sol\":11599:11618  owner != address(0) */\n      dup4\n      and\n        /* \"HaloNode.sol\":11591:11659  require(owner != address(0), \"BEP20: approve from the zero address\") */\n      tag_224\n      jumpi\n      mload(0x40)\n      shl(0xe5, 0x461bcd)\n      dup2\n      mstore\n        /* \"#utility.yul\":3035:3037   */\n      0x20\n        /* \"HaloNode.sol\":11591:11659  require(owner != address(0), \"BEP20: approve from the zero address\") */\n      0x04\n      dup3\n      add\n        /* \"#utility.yul\":3017:3038   */\n      mstore\n        /* \"#utility.yul\":3074:3076   */\n      0x24\n        /* \"#utility.yul\":3054:3072   */\n      dup1\n      dup3\n      add\n        /* \"#utility.yul\":3047:3077   */\n      mstore\n        /* \"#utility.yul\":3113:3147   */\n      0x42455032303a20617070726f76652066726f6d20746865207a65726f20616464\n        /* \"#utility.yul\":3093:3111   */\n      0x44\n      dup3\n      add\n        /* \"#utility.yul\":3086:3148   */\n      mstore\n      shl(0xe0, 0x72657373)\n        /* \"#utility.yul\":3164:3182   */\n      0x64\n      dup3\n      add\n        /* \"#utility.yul\":3157:3191   */\n      mstore\n        /* \"#utility.yul\":3208:3227   */\n      0x84\n      add\n        /* \"HaloNode.sol\":11591:11659  require(owner != address(0), \"BEP20: approve from the zero address\") */\n      tag_131\n        /* \"#utility.yul\":2833:3233   */\n      jump\n        /* \"HaloNode.sol\":11591:11659  require(owner != address(0), \"BEP20: approve from the zero address\") */\n    tag_224:\n      sub(shl(0xa0, 0x01), 0x01)\n        /* \"HaloNode.sol\":11674:11695  spender != address(0) */\n      dup3\n      and\n        /* \"HaloNode.sol\":11666:11734  require(spender != address(0), \"BEP20: approve to the zero address\") */\n      tag_227\n      jumpi\n      mload(0x40)\n      shl(0xe5, 0x461bcd)\n      dup2\n      mstore\n        /* \"#utility.yul\":5374:5376   */\n      0x20\n        /* \"HaloNode.sol\":11666:11734  require(spender != address(0), \"BEP20: approve to the zero address\") */\n      0x04\n      dup3\n      add\n        /* \"#utility.yul\":5356:5377   */\n      mstore\n        /* \"#utility.yul\":5413:5415   */\n      0x22\n        /* \"#utility.yul\":5393:5411   */\n      0x24\n      dup3\n      add\n        /* \"#utility.yul\":5386:5416   */\n      mstore\n        /* \"#utility.yul\":5452:5486   */\n      0x42455032303a20617070726f766520746f20746865207a65726f206164647265\n        /* \"#utility.yul\":5432:5450   */\n      0x44\n      dup3\n      add\n        /* \"#utility.yul\":5425:5487   */\n      mstore\n      shl(0xf0, 0x7373)\n        /* \"#utility.yul\":5503:5521   */\n      0x64\n      dup3\n      add\n        /* \"#utility.yul\":5496:5528   */\n      mstore\n        /* \"#utility.yul\":5545:5564   */\n      0x84\n      add\n        /* \"HaloNode.sol\":11666:11734  require(spender != address(0), \"BEP20: approve to the zero address\") */\n      tag_131\n        /* \"#utility.yul\":5172:5570   */\n      jump\n        /* \"HaloNode.sol\":11666:11734  require(spender != address(0), \"BEP20: approve to the zero address\") */\n    tag_227:\n      sub(shl(0xa0, 0x01), 0x01)\n        /* \"HaloNode.sol\":11743:11761  _allowances[owner] */\n      dup4\n      dup2\n      and\n      0x00\n      dup2\n      dup2\n      mstore\n        /* \"HaloNode.sol\":11743:11754  _allowances */\n      0x02\n        /* \"HaloNode.sol\":11743:11761  _allowances[owner] */\n      0x20\n      swap1\n      dup2\n      mstore\n      0x40\n      dup1\n      dup4\n      keccak256\n        /* \"HaloNode.sol\":11743:11770  _allowances[owner][spender] */\n      swap5\n      dup8\n      and\n      dup1\n      dup5\n      mstore\n      swap5\n      dup3\n      mstore\n      swap2\n      dup3\n      swap1\n      keccak256\n        /* \"HaloNode.sol\":11743:11779  _allowances[owner][spender] = amount */\n      dup6\n      swap1\n      sstore\n        /* \"HaloNode.sol\":11791:11823  Approval(owner, spender, amount) */\n      swap1\n      mload\n        /* \"#utility.yul\":6128:6153   */\n      dup5\n      dup2\n      mstore\n        /* \"HaloNode.sol\":11791:11823  Approval(owner, spender, amount) */\n      0x8c5be1e5ebec7d5bd14f71427d1e84f3dd0314c0f7b2291e5b200ac8c7c3b925\n      swap2\n        /* \"#utility.yul\":6101:6119   */\n      add\n        /* \"HaloNode.sol\":11791:11823  Approval(owner, spender, amount) */\n    tag_230:\n      mload(0x40)\n      dup1\n      swap2\n      sub\n      swap1\n      log3\n        /* \"HaloNode.sol\":11509:11829  function _approve(address owner, address spender, uint256 amount) internal {\r... */\n      pop\n      pop\n      pop\n      jump\t// out\n        /* \"HaloNode.sol\":9078:9910  function _transfer(address sender, address recipient, uint256 amount) internal {\r... */\n    tag_134:\n      sub(shl(0xa0, 0x01), 0x01)\n        /* \"HaloNode.sol\":9172:9192  sender != address(0) */\n      dup4\n      and\n        /* \"HaloNode.sol\":9164:9234  require(sender != address(0), \"BEP20: transfer from the zero address\") */\n      tag_232\n      jumpi\n      mload(0x40)\n      shl(0xe5, 0x461bcd)\n      dup2\n      mstore\n        /* \"#utility.yul\":2629:2631   */\n      0x20\n        /* \"HaloNode.sol\":9164:9234  require(sender != address(0), \"BEP20: transfer from the zero address\") */\n      0x04\n      dup3\n      add\n        /* \"#utility.yul\":2611:2632   */\n      mstore\n        /* \"#utility.yul\":2668:2670   */\n      0x25\n        /* \"#utility.yul\":2648:2666   */\n      0x24\n      dup3\n      add\n        /* \"#utility.yul\":2641:2671   */\n      mstore\n        /* \"#utility.yul\":2707:2741   */\n      0x42455032303a207472616e736665722066726f6d20746865207a65726f206164\n        /* \"#utility.yul\":2687:2705   */\n      0x44\n      dup3\n      add\n        /* \"#utility.yul\":2680:2742   */\n      mstore\n      shl(0xd8, 0x6472657373)\n        /* \"#utility.yul\":2758:2776   */\n      0x64\n      dup3\n      add\n        /* \"#utility.yul\":2751:2786   */\n      mstore\n        /* \"#utility.yul\":2803:2822   */\n      0x84\n      add\n        /* \"HaloNode.sol\":9164:9234  require(sender != address(0), \"BEP20: transfer from the zero address\") */\n      tag_131\n        /* \"#utility.yul\":2427:2828   */\n      jump\n        /* \"HaloNode.sol\":9164:9234  require(sender != address(0), \"BEP20: transfer from the zero address\") */\n    tag_232:\n      sub(shl(0xa0, 0x01), 0x01)\n        /* \"HaloNode.sol\":9249:9272  recipient != address(0) */\n      dup3\n      and\n        /* \"HaloNode.sol\":9241:9312  require(recipient != address(0), \"BEP20: transfer to the zero address\") */\n      tag_235\n      jumpi\n      mload(0x40)\n      shl(0xe5, 0x461bcd)\n      dup2\n      mstore\n        /* \"#utility.yul\":4568:4570   */\n      0x20\n        /* \"HaloNode.sol\":9241:9312  require(recipient != address(0), \"BEP20: transfer to the zero address\") */\n      0x04\n      dup3\n      add\n        /* \"#utility.yul\":4550:4571   */\n      mstore\n        /* \"#utility.yul\":4607:4609   */\n      0x23\n        /* \"#utility.yul\":4587:4605   */\n      0x24\n      dup3\n      add\n        /* \"#utility.yul\":4580:4610   */\n      mstore\n        /* \"#utility.yul\":4646:4680   */\n      0x42455032303a207472616e7366657220746f20746865207a65726f2061646472\n        /* \"#utility.yul\":4626:4644   */\n      0x44\n      dup3\n      add\n        /* \"#utility.yul\":4619:4681   */\n      mstore\n      shl(0xe8, 0x657373)\n        /* \"#utility.yul\":4697:4715   */\n      0x64\n      dup3\n      add\n        /* \"#utility.yul\":4690:4723   */\n      mstore\n        /* \"#utility.yul\":4740:4759   */\n      0x84\n      add\n        /* \"HaloNode.sol\":9241:9312  require(recipient != address(0), \"BEP20: transfer to the zero address\") */\n      tag_131\n        /* \"#utility.yul\":4366:4765   */\n      jump\n        /* \"HaloNode.sol\":9241:9312  require(recipient != address(0), \"BEP20: transfer to the zero address\") */\n    tag_235:\n        /* \"HaloNode.sol\":9339:9410  _balances[sender].sub(amount, \"BEP20: transfer amount exceeds balance\") */\n      tag_238\n        /* \"HaloNode.sol\":9361:9367  amount */\n      dup2\n        /* \"HaloNode.sol\":9339:9410  _balances[sender].sub(amount, \"BEP20: transfer amount exceeds balance\") */\n      mload(0x40)\n      dup1\n      0x60\n      add\n      0x40\n      mstore\n      dup1\n      0x26\n      dup2\n      mstore\n      0x20\n      add\n      data_a91efd7a65ef5b4ae4d6568d674798b78a5a89184dd296c100513251c22d3e73\n      0x26\n      swap2\n      codecopy\n      sub(shl(0xa0, 0x01), 0x01)\n        /* \"HaloNode.sol\":9339:9356  _balances[sender] */\n      dup7\n      and\n      0x00\n      swap1\n      dup2\n      mstore\n        /* \"HaloNode.sol\":9339:9348  _balances */\n      0x01\n        /* \"HaloNode.sol\":9339:9356  _balances[sender] */\n      0x20\n      mstore\n      0x40\n      swap1\n      keccak256\n      sload\n      swap2\n        /* \"HaloNode.sol\":9339:9410  _balances[sender].sub(amount, \"BEP20: transfer amount exceeds balance\") */\n      swap1\n        /* \"HaloNode.sol\":9339:9360  _balances[sender].sub */\n      tag_139\n        /* \"HaloNode.sol\":9339:9410  _balances[sender].sub(amount, \"BEP20: transfer amount exceeds balance\") */\n      jump\t// in\n    tag_238:\n      sub(shl(0xa0, 0x01), 0x01)\n        /* \"HaloNode.sol\":9319:9336  _balances[sender] */\n      dup1\n      dup6\n      and\n      0x00\n      swap1\n      dup2\n      mstore\n        /* \"HaloNode.sol\":9319:9328  _balances */\n      0x01\n        /* \"HaloNode.sol\":9319:9336  _balances[sender] */\n      0x20\n      mstore\n      0x40\n      swap1\n      keccak256\n        /* \"HaloNode.sol\":9319:9410  _balances[sender] = _balances[sender].sub(amount, \"BEP20: transfer amount exceeds balance\") */\n      swap2\n      swap1\n      swap2\n      sstore\n        /* \"HaloNode.sol\":9433:9446  managerWallet */\n      sload(0x07)\n        /* \"HaloNode.sol\":9420:9446  recipient != managerWallet */\n      dup4\n      dup3\n      and\n        /* \"HaloNode.sol\":9433:9446  managerWallet */\n      swap2\n      and\n        /* \"HaloNode.sol\":9420:9446  recipient != managerWallet */\n      eq\n        /* \"HaloNode.sol\":9417:9796  if(recipient != managerWallet){\r... */\n      tag_239\n      jumpi\n        /* \"HaloNode.sol\":9456:9473  uint256 taxAmount */\n      0x00\n        /* \"HaloNode.sol\":9476:9499  amount.mul(10).div(100) */\n      tag_240\n        /* \"HaloNode.sol\":9495:9498  100 */\n      0x64\n        /* \"HaloNode.sol\":9476:9490  amount.mul(10) */\n      tag_241\n        /* \"HaloNode.sol\":9476:9482  amount */\n      dup5\n        /* \"HaloNode.sol\":9487:9489  10 */\n      0x0a\n        /* \"HaloNode.sol\":9476:9486  amount.mul */\n      tag_242\n        /* \"HaloNode.sol\":9476:9490  amount.mul(10) */\n      jump\t// in\n    tag_241:\n        /* \"HaloNode.sol\":9476:9494  amount.mul(10).div */\n      swap1\n      tag_243\n        /* \"HaloNode.sol\":9476:9499  amount.mul(10).div(100) */\n      jump\t// in\n    tag_240:\n        /* \"HaloNode.sol\":9456:9499  uint256 taxAmount = amount.mul(10).div(100) */\n      swap1\n      pop\n        /* \"HaloNode.sol\":9531:9578  _balances[recipient].add(amount.sub(taxAmount)) */\n      tag_244\n        /* \"HaloNode.sol\":9556:9577  amount.sub(taxAmount) */\n      tag_245\n        /* \"HaloNode.sol\":9556:9562  amount */\n      dup4\n        /* \"HaloNode.sol\":9456:9499  uint256 taxAmount = amount.mul(10).div(100) */\n      dup4\n        /* \"HaloNode.sol\":9556:9566  amount.sub */\n      tag_246\n        /* \"HaloNode.sol\":9556:9577  amount.sub(taxAmount) */\n      jump\t// in\n    tag_245:\n      sub(shl(0xa0, 0x01), 0x01)\n        /* \"HaloNode.sol\":9531:9551  _balances[recipient] */\n      dup6\n      and\n      0x00\n      swap1\n      dup2\n      mstore\n        /* \"HaloNode.sol\":9531:9540  _balances */\n      0x01\n        /* \"HaloNode.sol\":9531:9551  _balances[recipient] */\n      0x20\n      mstore\n      0x40\n      swap1\n      keccak256\n      sload\n      swap1\n        /* \"HaloNode.sol\":9531:9555  _balances[recipient].add */\n      tag_146\n        /* \"HaloNode.sol\":9531:9578  _balances[recipient].add(amount.sub(taxAmount)) */\n      jump\t// in\n    tag_244:\n      sub(shl(0xa0, 0x01), 0x01)\n        /* \"HaloNode.sol\":9508:9528  _balances[recipient] */\n      dup1\n      dup6\n      and\n      0x00\n      dup2\n      dup2\n      mstore\n        /* \"HaloNode.sol\":9508:9517  _balances */\n      0x01\n        /* \"HaloNode.sol\":9508:9528  _balances[recipient] */\n      0x20\n      mstore\n      0x40\n      swap1\n      keccak256\n        /* \"HaloNode.sol\":9508:9578  _balances[recipient] = _balances[recipient].add(amount.sub(taxAmount)) */\n      swap3\n      swap1\n      swap3\n      sstore\n        /* \"HaloNode.sol\":9592:9642  Transfer(sender, recipient, amount.sub(taxAmount)) */\n      dup6\n      and\n      0x00\n      dup1\n      mload\n      0x20\n      data_ada389e1fc24a8587c776340efb91b36e675792ab631816100d55df0b5cf3cbc\n      dup4\n      codecopy\n      dup2\n      mload\n      swap2\n      mstore\n        /* \"HaloNode.sol\":9620:9641  amount.sub(taxAmount) */\n      tag_247\n        /* \"HaloNode.sol\":9620:9626  amount */\n      dup6\n        /* \"HaloNode.sol\":9631:9640  taxAmount */\n      dup6\n        /* \"HaloNode.sol\":9620:9630  amount.sub */\n      tag_246\n        /* \"HaloNode.sol\":9620:9641  amount.sub(taxAmount) */\n      jump\t// in\n    tag_247:\n        /* \"HaloNode.sol\":9592:9642  Transfer(sender, recipient, amount.sub(taxAmount)) */\n      mload(0x40)\n        /* \"#utility.yul\":6128:6153   */\n      swap1\n      dup2\n      mstore\n        /* \"#utility.yul\":6116:6118   */\n      0x20\n        /* \"#utility.yul\":6101:6119   */\n      add\n        /* \"HaloNode.sol\":9592:9642  Transfer(sender, recipient, amount.sub(taxAmount)) */\n      mload(0x40)\n      dup1\n      swap2\n      sub\n      swap1\n      log3\n        /* \"HaloNode.sol\":9688:9701  managerWallet */\n      and(sub(shl(0xa0, 0x01), 0x01), sload(0x07))\n        /* \"HaloNode.sol\":9678:9702  _balances[managerWallet] */\n      0x00\n      swap1\n      dup2\n      mstore\n        /* \"HaloNode.sol\":9678:9687  _balances */\n      0x01\n        /* \"HaloNode.sol\":9678:9702  _balances[managerWallet] */\n      0x20\n      mstore\n      0x40\n      swap1\n      keccak256\n      sload\n        /* \"HaloNode.sol\":9678:9717  _balances[managerWallet].add(taxAmount) */\n      tag_249\n      swap1\n        /* \"HaloNode.sol\":9707:9716  taxAmount */\n      dup3\n        /* \"HaloNode.sol\":9678:9706  _balances[managerWallet].add */\n      tag_146\n        /* \"HaloNode.sol\":9678:9717  _balances[managerWallet].add(taxAmount) */\n      jump\t// in\n    tag_249:\n        /* \"HaloNode.sol\":9661:9674  managerWallet */\n      0x07\n      dup1\n      sload\n      sub(shl(0xa0, 0x01), 0x01)\n      swap1\n      dup2\n      and\n        /* \"HaloNode.sol\":9651:9675  _balances[managerWallet] */\n      0x00\n      swap1\n      dup2\n      mstore\n        /* \"HaloNode.sol\":9651:9660  _balances */\n      0x01\n        /* \"HaloNode.sol\":9651:9675  _balances[managerWallet] */\n      0x20\n      swap1\n      dup2\n      mstore\n      0x40\n      swap2\n      dup3\n      swap1\n      keccak256\n        /* \"HaloNode.sol\":9651:9717  _balances[managerWallet] = _balances[managerWallet].add(taxAmount) */\n      swap5\n      swap1\n      swap5\n      sstore\n        /* \"HaloNode.sol\":9748:9761  managerWallet */\n      swap2\n      sload\n        /* \"HaloNode.sol\":9731:9773  Transfer(sender, managerWallet, taxAmount) */\n      swap2\n      mload\n        /* \"#utility.yul\":6128:6153   */\n      dup5\n      dup2\n      mstore\n        /* \"HaloNode.sol\":9748:9761  managerWallet */\n      swap2\n      dup2\n      and\n      swap3\n        /* \"HaloNode.sol\":9731:9773  Transfer(sender, managerWallet, taxAmount) */\n      swap1\n      dup8\n      and\n      swap2\n      0x00\n      dup1\n      mload\n      0x20\n      data_ada389e1fc24a8587c776340efb91b36e675792ab631816100d55df0b5cf3cbc\n      dup4\n      codecopy\n      dup2\n      mload\n      swap2\n      mstore\n      swap2\n        /* \"#utility.yul\":6101:6119   */\n      add\n        /* \"HaloNode.sol\":9731:9773  Transfer(sender, managerWallet, taxAmount) */\n      mload(0x40)\n      dup1\n      swap2\n      sub\n      swap1\n      log3\n        /* \"HaloNode.sol\":9782:9789  return; */\n      pop\n        /* \"HaloNode.sol\":9078:9910  function _transfer(address sender, address recipient, uint256 amount) internal {\r... */\n      pop\n      pop\n      pop\n      jump\t// out\n        /* \"HaloNode.sol\":9417:9796  if(recipient != managerWallet){\r... */\n    tag_239:\n      sub(shl(0xa0, 0x01), 0x01)\n        /* \"HaloNode.sol\":9825:9845  _balances[recipient] */\n      dup3\n      and\n      0x00\n      swap1\n      dup2\n      mstore\n        /* \"HaloNode.sol\":9825:9834  _balances */\n      0x01\n        /* \"HaloNode.sol\":9825:9845  _balances[recipient] */\n      0x20\n      mstore\n      0x40\n      swap1\n      keccak256\n      sload\n        /* \"HaloNode.sol\":9825:9857  _balances[recipient].add(amount) */\n      tag_251\n      swap1\n        /* \"HaloNode.sol\":9850:9856  amount */\n      dup3\n        /* \"HaloNode.sol\":9825:9849  _balances[recipient].add */\n      tag_146\n        /* \"HaloNode.sol\":9825:9857  _balances[recipient].add(amount) */\n      jump\t// in\n    tag_251:\n      sub(shl(0xa0, 0x01), 0x01)\n        /* \"HaloNode.sol\":9802:9822  _balances[recipient] */\n      dup1\n      dup5\n      and\n      0x00\n      dup2\n      dup2\n      mstore\n        /* \"HaloNode.sol\":9802:9811  _balances */\n      0x01\n        /* \"HaloNode.sol\":9802:9822  _balances[recipient] */\n      0x20\n      mstore\n      0x40\n      swap1\n      dup2\n      swap1\n      keccak256\n        /* \"HaloNode.sol\":9802:9857  _balances[recipient] = _balances[recipient].add(amount) */\n      swap4\n      swap1\n      swap4\n      sstore\n        /* \"HaloNode.sol\":9869:9904  Transfer(sender, recipient, amount) */\n      swap2\n      mload\n      swap1\n      dup6\n      and\n      swap1\n      0x00\n      dup1\n      mload\n      0x20\n      data_ada389e1fc24a8587c776340efb91b36e675792ab631816100d55df0b5cf3cbc\n      dup4\n      codecopy\n      dup2\n      mload\n      swap2\n      mstore\n      swap1\n      tag_230\n      swap1\n        /* \"HaloNode.sol\":9897:9903  amount */\n      dup6\n        /* \"#utility.yul\":6128:6153   */\n      dup2\n      mstore\n        /* \"#utility.yul\":6116:6118   */\n      0x20\n        /* \"#utility.yul\":6101:6119   */\n      add\n      swap1\n        /* \"#utility.yul\":5982:6159   */\n      jump\n        /* \"@openzeppelin/contracts/utils/math/SafeMath.sol\":4945:5176  function sub(... */\n    tag_139:\n        /* \"@openzeppelin/contracts/utils/math/SafeMath.sol\":5061:5068  uint256 */\n      0x00\n        /* \"@openzeppelin/contracts/utils/math/SafeMath.sol\":5120:5132  errorMessage */\n      dup2\n        /* \"@openzeppelin/contracts/utils/math/SafeMath.sol\":5112:5118  b <= a */\n      dup5\n      dup5\n      gt\n      iszero\n        /* \"@openzeppelin/contracts/utils/math/SafeMath.sol\":5104:5133  require(b <= a, errorMessage) */\n      tag_254\n      jumpi\n      mload(0x40)\n      shl(0xe5, 0x461bcd)\n      dup2\n      mstore\n      0x04\n      add\n      tag_131\n      swap2\n      swap1\n      tag_32\n      jump\t// in\n    tag_254:\n      pop\n      pop\n      pop\n        /* \"@openzeppelin/contracts/utils/math/SafeMath.sol\":5154:5159  a - b */\n      swap1\n      sub\n      swap1\n        /* \"@openzeppelin/contracts/utils/math/SafeMath.sol\":4945:5176  function sub(... */\n      jump\t// out\n        /* \"@openzeppelin/contracts/utils/math/SafeMath.sol\":2741:2837  function add(uint256 a, uint256 b) internal pure returns (uint256) {... */\n    tag_146:\n        /* \"@openzeppelin/contracts/utils/math/SafeMath.sol\":2799:2806  uint256 */\n      0x00\n        /* \"@openzeppelin/contracts/utils/math/SafeMath.sol\":2825:2830  a + b */\n      tag_257\n        /* \"@openzeppelin/contracts/utils/math/SafeMath.sol\":2829:2830  b */\n      dup3\n        /* \"@openzeppelin/contracts/utils/math/SafeMath.sol\":2825:2826  a */\n      dup5\n        /* \"@openzeppelin/contracts/utils/math/SafeMath.sol\":2825:2830  a + b */\n      tag_258\n      jump\t// in\n    tag_257:\n        /* \"@openzeppelin/contracts/utils/math/SafeMath.sol\":2818:2830  return a + b */\n      swap4\n        /* \"@openzeppelin/contracts/utils/math/SafeMath.sol\":2741:2837  function add(uint256 a, uint256 b) internal pure returns (uint256) {... */\n      swap3\n      pop\n      pop\n      pop\n      jump\t// out\n        /* \"HaloNode.sol\":10767:11097  function _burn(address account, uint256 amount) internal {\r... */\n    tag_157:\n      sub(shl(0xa0, 0x01), 0x01)\n        /* \"HaloNode.sol\":10839:10860  account != address(0) */\n      dup3\n      and\n        /* \"HaloNode.sol\":10831:10898  require(account != address(0), \"BEP20: burn from the zero address\") */\n      tag_260\n      jumpi\n      mload(0x40)\n      shl(0xe5, 0x461bcd)\n      dup2\n      mstore\n        /* \"#utility.yul\":4972:4974   */\n      0x20\n        /* \"HaloNode.sol\":10831:10898  require(account != address(0), \"BEP20: burn from the zero address\") */\n      0x04\n      dup3\n      add\n        /* \"#utility.yul\":4954:4975   */\n      mstore\n        /* \"#utility.yul\":5011:5013   */\n      0x21\n        /* \"#utility.yul\":4991:5009   */\n      0x24\n      dup3\n      add\n        /* \"#utility.yul\":4984:5014   */\n      mstore\n        /* \"#utility.yul\":5050:5084   */\n      0x42455032303a206275726e2066726f6d20746865207a65726f20616464726573\n        /* \"#utility.yul\":5030:5048   */\n      0x44\n      dup3\n      add\n        /* \"#utility.yul\":5023:5085   */\n      mstore\n      shl(0xf8, 0x73)\n        /* \"#utility.yul\":5101:5119   */\n      0x64\n      dup3\n      add\n        /* \"#utility.yul\":5094:5125   */\n      mstore\n        /* \"#utility.yul\":5142:5161   */\n      0x84\n      add\n        /* \"HaloNode.sol\":10831:10898  require(account != address(0), \"BEP20: burn from the zero address\") */\n      tag_131\n        /* \"#utility.yul\":4770:5167   */\n      jump\n        /* \"HaloNode.sol\":10831:10898  require(account != address(0), \"BEP20: burn from the zero address\") */\n    tag_260:\n        /* \"HaloNode.sol\":10928:10996  _balances[account].sub(amount, \"BEP20: burn amount exceeds balance\") */\n      tag_263\n        /* \"HaloNode.sol\":10951:10957  amount */\n      dup2\n        /* \"HaloNode.sol\":10928:10996  _balances[account].sub(amount, \"BEP20: burn amount exceeds balance\") */\n      mload(0x40)\n      dup1\n      0x60\n      add\n      0x40\n      mstore\n      dup1\n      0x22\n      dup2\n      mstore\n      0x20\n      add\n      data_deaa84b30175fd0578812c46240362b7914652a35e6707ad7e1556891e4ae032\n      0x22\n      swap2\n      codecopy\n      sub(shl(0xa0, 0x01), 0x01)\n        /* \"HaloNode.sol\":10928:10946  _balances[account] */\n      dup6\n      and\n      0x00\n      swap1\n      dup2\n      mstore\n        /* \"HaloNode.sol\":10928:10937  _balances */\n      0x01\n        /* \"HaloNode.sol\":10928:10946  _balances[account] */\n      0x20\n      mstore\n      0x40\n      swap1\n      keccak256\n      sload\n      swap2\n        /* \"HaloNode.sol\":10928:10996  _balances[account].sub(amount, \"BEP20: burn amount exceeds balance\") */\n      swap1\n        /* \"HaloNode.sol\":10928:10950  _balances[account].sub */\n      tag_139\n        /* \"HaloNode.sol\":10928:10996  _balances[account].sub(amount, \"BEP20: burn amount exceeds balance\") */\n      jump\t// in\n    tag_263:\n      sub(shl(0xa0, 0x01), 0x01)\n        /* \"HaloNode.sol\":10907:10925  _balances[account] */\n      dup4\n      and\n      0x00\n      swap1\n      dup2\n      mstore\n        /* \"HaloNode.sol\":10907:10916  _balances */\n      0x01\n        /* \"HaloNode.sol\":10907:10925  _balances[account] */\n      0x20\n      mstore\n      0x40\n      swap1\n      keccak256\n        /* \"HaloNode.sol\":10907:10996  _balances[account] = _balances[account].sub(amount, \"BEP20: burn amount exceeds balance\") */\n      sstore\n        /* \"HaloNode.sol\":11018:11030  _totalSupply */\n      sload(0x03)\n        /* \"HaloNode.sol\":11018:11042  _totalSupply.sub(amount) */\n      tag_264\n      swap1\n        /* \"HaloNode.sol\":11035:11041  amount */\n      dup3\n        /* \"HaloNode.sol\":11018:11034  _totalSupply.sub */\n      tag_246\n        /* \"HaloNode.sol\":11018:11042  _totalSupply.sub(amount) */\n      jump\t// in\n    tag_264:\n        /* \"HaloNode.sol\":11003:11015  _totalSupply */\n      0x03\n        /* \"HaloNode.sol\":11003:11042  _totalSupply = _totalSupply.sub(amount) */\n      sstore\n        /* \"HaloNode.sol\":11054:11091  Transfer(account, address(0), amount) */\n      mload(0x40)\n        /* \"#utility.yul\":6128:6153   */\n      dup2\n      dup2\n      mstore\n        /* \"HaloNode.sol\":11080:11081  0 */\n      0x00\n      swap1\n      sub(shl(0xa0, 0x01), 0x01)\n        /* \"HaloNode.sol\":11054:11091  Transfer(account, address(0), amount) */\n      dup5\n      and\n      swap1\n      0x00\n      dup1\n      mload\n      0x20\n      data_ada389e1fc24a8587c776340efb91b36e675792ab631816100d55df0b5cf3cbc\n      dup4\n      codecopy\n      dup2\n      mload\n      swap2\n      mstore\n      swap1\n        /* \"#utility.yul\":6116:6118   */\n      0x20\n        /* \"#utility.yul\":6101:6119   */\n      add\n        /* \"HaloNode.sol\":11054:11091  Transfer(account, address(0), amount) */\n    tag_265:\n      mload(0x40)\n      dup1\n      swap2\n      sub\n      swap1\n      log3\n        /* \"HaloNode.sol\":10767:11097  function _burn(address account, uint256 amount) internal {\r... */\n      pop\n      pop\n      jump\t// out\n        /* \"@openzeppelin/contracts/access/Ownable.sol\":2270:2457  function _transferOwnership(address newOwner) internal virtual {... */\n    tag_172:\n        /* \"@openzeppelin/contracts/access/Ownable.sol\":2343:2359  address oldOwner */\n      0x00\n        /* \"@openzeppelin/contracts/access/Ownable.sol\":2362:2368  _owner */\n      dup1\n      sload\n      sub(shl(0xa0, 0x01), 0x01)\n        /* \"@openzeppelin/contracts/access/Ownable.sol\":2378:2395  _owner = newOwner */\n      dup4\n      dup2\n      and\n      not(sub(shl(0xa0, 0x01), 0x01))\n      dup4\n      and\n      dup2\n      or\n      dup5\n      sstore\n        /* \"@openzeppelin/contracts/access/Ownable.sol\":2410:2450  OwnershipTransferred(oldOwner, newOwner) */\n      mload(0x40)\n        /* \"@openzeppelin/contracts/access/Ownable.sol\":2362:2368  _owner */\n      swap2\n      swap1\n      swap3\n      and\n      swap3\n      dup4\n      swap2\n        /* \"@openzeppelin/contracts/access/Ownable.sol\":2410:2450  OwnershipTransferred(oldOwner, newOwner) */\n      0x8be0079c531659141344cd1fd0a4f28419497f9722a3daafe3b4186f6b6457e0\n      swap2\n        /* \"@openzeppelin/contracts/access/Ownable.sol\":2343:2359  address oldOwner */\n      swap1\n        /* \"@openzeppelin/contracts/access/Ownable.sol\":2410:2450  OwnershipTransferred(oldOwner, newOwner) */\n      log3\n        /* \"@openzeppelin/contracts/access/Ownable.sol\":2333:2457  {... */\n      pop\n        /* \"@openzeppelin/contracts/access/Ownable.sol\":2270:2457  function _transferOwnership(address newOwner) internal virtual {... */\n      pop\n      jump\t// out\n        /* \"HaloNode.sol\":10169:10459  function _mint(address account, uint256 amount) internal {\r... */\n    tag_190:\n      sub(shl(0xa0, 0x01), 0x01)\n        /* \"HaloNode.sol\":10241:10262  account != address(0) */\n      dup3\n      and\n        /* \"HaloNode.sol\":10233:10298  require(account != address(0), \"BEP20: mint to the zero address\") */\n      tag_268\n      jumpi\n      mload(0x40)\n      shl(0xe5, 0x461bcd)\n      dup2\n      mstore\n        /* \"#utility.yul\":3847:3849   */\n      0x20\n        /* \"HaloNode.sol\":10233:10298  require(account != address(0), \"BEP20: mint to the zero address\") */\n      0x04\n      dup3\n      add\n        /* \"#utility.yul\":3829:3850   */\n      mstore\n        /* \"#utility.yul\":3886:3888   */\n      0x1f\n        /* \"#utility.yul\":3866:3884   */\n      0x24\n      dup3\n      add\n        /* \"#utility.yul\":3859:3889   */\n      mstore\n        /* \"#utility.yul\":3925:3958   */\n      0x42455032303a206d696e7420746f20746865207a65726f206164647265737300\n        /* \"#utility.yul\":3905:3923   */\n      0x44\n      dup3\n      add\n        /* \"#utility.yul\":3898:3959   */\n      mstore\n        /* \"#utility.yul\":3976:3994   */\n      0x64\n      add\n        /* \"HaloNode.sol\":10233:10298  require(account != address(0), \"BEP20: mint to the zero address\") */\n      tag_131\n        /* \"#utility.yul\":3645:4000   */\n      jump\n        /* \"HaloNode.sol\":10233:10298  require(account != address(0), \"BEP20: mint to the zero address\") */\n    tag_268:\n        /* \"HaloNode.sol\":10322:10334  _totalSupply */\n      sload(0x03)\n        /* \"HaloNode.sol\":10322:10346  _totalSupply.add(amount) */\n      tag_271\n      swap1\n        /* \"HaloNode.sol\":10339:10345  amount */\n      dup3\n        /* \"HaloNode.sol\":10322:10338  _totalSupply.add */\n      tag_146\n        /* \"HaloNode.sol\":10322:10346  _totalSupply.add(amount) */\n      jump\t// in\n    tag_271:\n        /* \"HaloNode.sol\":10307:10319  _totalSupply */\n      0x03\n        /* \"HaloNode.sol\":10307:10346  _totalSupply = _totalSupply.add(amount) */\n      sstore\n      sub(shl(0xa0, 0x01), 0x01)\n        /* \"HaloNode.sol\":10374:10392  _balances[account] */\n      dup3\n      and\n      0x00\n      swap1\n      dup2\n      mstore\n        /* \"HaloNode.sol\":10374:10383  _balances */\n      0x01\n        /* \"HaloNode.sol\":10374:10392  _balances[account] */\n      0x20\n      mstore\n      0x40\n      swap1\n      keccak256\n      sload\n        /* \"HaloNode.sol\":10374:10404  _balances[account].add(amount) */\n      tag_272\n      swap1\n        /* \"HaloNode.sol\":10397:10403  amount */\n      dup3\n        /* \"HaloNode.sol\":10374:10396  _balances[account].add */\n      tag_146\n        /* \"HaloNode.sol\":10374:10404  _balances[account].add(amount) */\n      jump\t// in\n    tag_272:\n      sub(shl(0xa0, 0x01), 0x01)\n        /* \"HaloNode.sol\":10353:10371  _balances[account] */\n      dup4\n      and\n      0x00\n      dup2\n      dup2\n      mstore\n        /* \"HaloNode.sol\":10353:10362  _balances */\n      0x01\n        /* \"HaloNode.sol\":10353:10371  _balances[account] */\n      0x20\n      mstore\n      0x40\n      dup1\n      dup3\n      keccak256\n        /* \"HaloNode.sol\":10353:10404  _balances[account] = _balances[account].add(amount) */\n      swap4\n      swap1\n      swap4\n      sstore\n        /* \"HaloNode.sol\":10416:10453  Transfer(address(0), account, amount) */\n      swap2\n      mload\n        /* \"HaloNode.sol\":10353:10371  _balances[account] */\n      swap1\n      swap2\n      swap1\n      0x00\n      dup1\n      mload\n      0x20\n      data_ada389e1fc24a8587c776340efb91b36e675792ab631816100d55df0b5cf3cbc\n      dup4\n      codecopy\n      dup2\n      mload\n      swap2\n      mstore\n        /* \"HaloNode.sol\":10416:10453  Transfer(address(0), account, amount) */\n      swap1\n      tag_265\n      swap1\n        /* \"HaloNode.sol\":10446:10452  amount */\n      dup6\n        /* \"#utility.yul\":6128:6153   */\n      dup2\n      mstore\n        /* \"#utility.yul\":6116:6118   */\n      0x20\n        /* \"#utility.yul\":6101:6119   */\n      add\n      swap1\n        /* \"#utility.yul\":5982:6159   */\n      jump\n        /* \"@openzeppelin/contracts/utils/math/SafeMath.sol\":3451:3547  function mul(uint256 a, uint256 b) internal pure returns (uint256) {... */\n    tag_242:\n        /* \"@openzeppelin/contracts/utils/math/SafeMath.sol\":3509:3516  uint256 */\n      0x00\n        /* \"@openzeppelin/contracts/utils/math/SafeMath.sol\":3535:3540  a * b */\n      tag_257\n        /* \"@openzeppelin/contracts/utils/math/SafeMath.sol\":3539:3540  b */\n      dup3\n        /* \"@openzeppelin/contracts/utils/math/SafeMath.sol\":3535:3536  a */\n      dup5\n        /* \"@openzeppelin/contracts/utils/math/SafeMath.sol\":3535:3540  a * b */\n      tag_276\n      jump\t// in\n        /* \"@openzeppelin/contracts/utils/math/SafeMath.sol\":3836:3932  function div(uint256 a, uint256 b) internal pure returns (uint256) {... */\n    tag_243:\n        /* \"@openzeppelin/contracts/utils/math/SafeMath.sol\":3894:3901  uint256 */\n      0x00\n        /* \"@openzeppelin/contracts/utils/math/SafeMath.sol\":3920:3925  a / b */\n      tag_257\n        /* \"@openzeppelin/contracts/utils/math/SafeMath.sol\":3924:3925  b */\n      dup3\n        /* \"@openzeppelin/contracts/utils/math/SafeMath.sol\":3920:3921  a */\n      dup5\n        /* \"@openzeppelin/contracts/utils/math/SafeMath.sol\":3920:3925  a / b */\n      tag_279\n      jump\t// in\n        /* \"@openzeppelin/contracts/utils/math/SafeMath.sol\":3108:3204  function sub(uint256 a, uint256 b) internal pure returns (uint256) {... */\n    tag_246:\n        /* \"@openzeppelin/contracts/utils/math/SafeMath.sol\":3166:3173  uint256 */\n      0x00\n        /* \"@openzeppelin/contracts/utils/math/SafeMath.sol\":3192:3197  a - b */\n      tag_257\n        /* \"@openzeppelin/contracts/utils/math/SafeMath.sol\":3196:3197  b */\n      dup3\n        /* \"@openzeppelin/contracts/utils/math/SafeMath.sol\":3192:3193  a */\n      dup5\n        /* \"@openzeppelin/contracts/utils/math/SafeMath.sol\":3192:3197  a - b */\n      tag_282\n      jump\t// in\n        /* \"#utility.yul\":14:187   */\n    tag_284:\n        /* \"#utility.yul\":82:102   */\n      dup1\n      calldataload\n      sub(shl(0xa0, 0x01), 0x01)\n        /* \"#utility.yul\":131:162   */\n      dup2\n      and\n        /* \"#utility.yul\":121:163   */\n      dup2\n      eq\n        /* \"#utility.yul\":111:181   */\n      tag_187\n      jumpi\n        /* \"#utility.yul\":177:178   */\n      0x00\n        /* \"#utility.yul\":174:175   */\n      dup1\n        /* \"#utility.yul\":167:179   */\n      revert\n        /* \"#utility.yul\":192:378   */\n    tag_61:\n        /* \"#utility.yul\":251:257   */\n      0x00\n        /* \"#utility.yul\":304:306   */\n      0x20\n        /* \"#utility.yul\":292:301   */\n      dup3\n        /* \"#utility.yul\":283:290   */\n      dup5\n        /* \"#utility.yul\":279:302   */\n      sub\n        /* \"#utility.yul\":275:307   */\n      slt\n        /* \"#utility.yul\":272:324   */\n      iszero\n      tag_288\n      jumpi\n        /* \"#utility.yul\":320:321   */\n      0x00\n        /* \"#utility.yul\":317:318   */\n      dup1\n        /* \"#utility.yul\":310:322   */\n      revert\n        /* \"#utility.yul\":272:324   */\n    tag_288:\n        /* \"#utility.yul\":343:372   */\n      tag_257\n        /* \"#utility.yul\":362:371   */\n      dup3\n        /* \"#utility.yul\":343:372   */\n      tag_284\n      jump\t// in\n        /* \"#utility.yul\":383:643   */\n    tag_110:\n        /* \"#utility.yul\":451:457   */\n      0x00\n        /* \"#utility.yul\":459:465   */\n      dup1\n        /* \"#utility.yul\":512:514   */\n      0x40\n        /* \"#utility.yul\":500:509   */\n      dup4\n        /* \"#utility.yul\":491:498   */\n      dup6\n        /* \"#utility.yul\":487:510   */\n      sub\n        /* \"#utility.yul\":483:515   */\n      slt\n        /* \"#utility.yul\":480:532   */\n      iszero\n      tag_291\n      jumpi\n        /* \"#utility.yul\":528:529   */\n      0x00\n        /* \"#utility.yul\":525:526   */\n      dup1\n        /* \"#utility.yul\":518:530   */\n      revert\n        /* \"#utility.yul\":480:532   */\n    tag_291:\n        /* \"#utility.yul\":551:580   */\n      tag_292\n        /* \"#utility.yul\":570:579   */\n      dup4\n        /* \"#utility.yul\":551:580   */\n      tag_284\n      jump\t// in\n    tag_292:\n        /* \"#utility.yul\":541:580   */\n      swap2\n      pop\n        /* \"#utility.yul\":599:637   */\n      tag_293\n        /* \"#utility.yul\":633:635   */\n      0x20\n        /* \"#utility.yul\":622:631   */\n      dup5\n        /* \"#utility.yul\":618:636   */\n      add\n        /* \"#utility.yul\":599:637   */\n      tag_284\n      jump\t// in\n    tag_293:\n        /* \"#utility.yul\":589:637   */\n      swap1\n      pop\n        /* \"#utility.yul\":383:643   */\n      swap3\n      pop\n      swap3\n      swap1\n      pop\n      jump\t// out\n        /* \"#utility.yul\":648:976   */\n    tag_45:\n        /* \"#utility.yul\":725:731   */\n      0x00\n        /* \"#utility.yul\":733:739   */\n      dup1\n        /* \"#utility.yul\":741:747   */\n      0x00\n        /* \"#utility.yul\":794:796   */\n      0x60\n        /* \"#utility.yul\":782:791   */\n      dup5\n        /* \"#utility.yul\":773:780   */\n      dup7\n        /* \"#utility.yul\":769:792   */\n      sub\n        /* \"#utility.yul\":765:797   */\n      slt\n        /* \"#utility.yul\":762:814   */\n      iszero\n      tag_295\n      jumpi\n        /* \"#utility.yul\":810:811   */\n      0x00\n        /* \"#utility.yul\":807:808   */\n      dup1\n        /* \"#utility.yul\":800:812   */\n      revert\n        /* \"#utility.yul\":762:814   */\n    tag_295:\n        /* \"#utility.yul\":833:862   */\n      tag_296\n        /* \"#utility.yul\":852:861   */\n      dup5\n        /* \"#utility.yul\":833:862   */\n      tag_284\n      jump\t// in\n    tag_296:\n        /* \"#utility.yul\":823:862   */\n      swap3\n      pop\n        /* \"#utility.yul\":881:919   */\n      tag_297\n        /* \"#utility.yul\":915:917   */\n      0x20\n        /* \"#utility.yul\":904:913   */\n      dup6\n        /* \"#utility.yul\":900:918   */\n      add\n        /* \"#utility.yul\":881:919   */\n      tag_284\n      jump\t// in\n    tag_297:\n        /* \"#utility.yul\":871:919   */\n      swap2\n      pop\n        /* \"#utility.yul\":966:968   */\n      0x40\n        /* \"#utility.yul\":955:964   */\n      dup5\n        /* \"#utility.yul\":951:969   */\n      add\n        /* \"#utility.yul\":938:970   */\n      calldataload\n        /* \"#utility.yul\":928:970   */\n      swap1\n      pop\n        /* \"#utility.yul\":648:976   */\n      swap3\n      pop\n      swap3\n      pop\n      swap3\n      jump\t// out\n        /* \"#utility.yul\":981:1235   */\n    tag_35:\n        /* \"#utility.yul\":1049:1055   */\n      0x00\n        /* \"#utility.yul\":1057:1063   */\n      dup1\n        /* \"#utility.yul\":1110:1112   */\n      0x40\n        /* \"#utility.yul\":1098:1107   */\n      dup4\n        /* \"#utility.yul\":1089:1096   */\n      dup6\n        /* \"#utility.yul\":1085:1108   */\n      sub\n        /* \"#utility.yul\":1081:1113   */\n      slt\n        /* \"#utility.yul\":1078:1130   */\n      iszero\n      tag_299\n      jumpi\n        /* \"#utility.yul\":1126:1127   */\n      0x00\n        /* \"#utility.yul\":1123:1124   */\n      dup1\n        /* \"#utility.yul\":1116:1128   */\n      revert\n        /* \"#utility.yul\":1078:1130   */\n    tag_299:\n        /* \"#utility.yul\":1149:1178   */\n      tag_300\n        /* \"#utility.yul\":1168:1177   */\n      dup4\n        /* \"#utility.yul\":1149:1178   */\n      tag_284\n      jump\t// in\n    tag_300:\n        /* \"#utility.yul\":1139:1178   */\n      swap5\n        /* \"#utility.yul\":1225:1227   */\n      0x20\n        /* \"#utility.yul\":1210:1228   */\n      swap4\n      swap1\n      swap4\n      add\n        /* \"#utility.yul\":1197:1229   */\n      calldataload\n      swap4\n      pop\n      pop\n      pop\n        /* \"#utility.yul\":981:1235   */\n      jump\t// out\n        /* \"#utility.yul\":1240:1420   */\n    tag_65:\n        /* \"#utility.yul\":1299:1305   */\n      0x00\n        /* \"#utility.yul\":1352:1354   */\n      0x20\n        /* \"#utility.yul\":1340:1349   */\n      dup3\n        /* \"#utility.yul\":1331:1338   */\n      dup5\n        /* \"#utility.yul\":1327:1350   */\n      sub\n        /* \"#utility.yul\":1323:1355   */\n      slt\n        /* \"#utility.yul\":1320:1372   */\n      iszero\n      tag_302\n      jumpi\n        /* \"#utility.yul\":1368:1369   */\n      0x00\n        /* \"#utility.yul\":1365:1366   */\n      dup1\n        /* \"#utility.yul\":1358:1370   */\n      revert\n        /* \"#utility.yul\":1320:1372   */\n    tag_302:\n      pop\n        /* \"#utility.yul\":1391:1414   */\n      calldataload\n      swap2\n        /* \"#utility.yul\":1240:1420   */\n      swap1\n      pop\n      jump\t// out\n        /* \"#utility.yul\":1825:2422   */\n    tag_32:\n        /* \"#utility.yul\":1937:1941   */\n      0x00\n        /* \"#utility.yul\":1966:1968   */\n      0x20\n        /* \"#utility.yul\":1995:1997   */\n      dup1\n        /* \"#utility.yul\":1984:1993   */\n      dup4\n        /* \"#utility.yul\":1977:1998   */\n      mstore\n        /* \"#utility.yul\":2027:2033   */\n      dup4\n        /* \"#utility.yul\":2021:2034   */\n      mload\n        /* \"#utility.yul\":2070:2076   */\n      dup1\n        /* \"#utility.yul\":2065:2067   */\n      dup3\n        /* \"#utility.yul\":2054:2063   */\n      dup6\n        /* \"#utility.yul\":2050:2068   */\n      add\n        /* \"#utility.yul\":2043:2077   */\n      mstore\n        /* \"#utility.yul\":2095:2096   */\n      0x00\n        /* \"#utility.yul\":2105:2245   */\n    tag_306:\n        /* \"#utility.yul\":2119:2125   */\n      dup2\n        /* \"#utility.yul\":2116:2117   */\n      dup2\n        /* \"#utility.yul\":2113:2126   */\n      lt\n        /* \"#utility.yul\":2105:2245   */\n      iszero\n      tag_308\n      jumpi\n        /* \"#utility.yul\":2214:2228   */\n      dup6\n      dup2\n      add\n        /* \"#utility.yul\":2210:2233   */\n      dup4\n      add\n        /* \"#utility.yul\":2204:2234   */\n      mload\n        /* \"#utility.yul\":2180:2197   */\n      dup6\n      dup3\n      add\n        /* \"#utility.yul\":2199:2201   */\n      0x40\n        /* \"#utility.yul\":2176:2202   */\n      add\n        /* \"#utility.yul\":2169:2235   */\n      mstore\n        /* \"#utility.yul\":2134:2144   */\n      dup3\n      add\n        /* \"#utility.yul\":2105:2245   */\n      jump(tag_306)\n    tag_308:\n        /* \"#utility.yul\":2263:2269   */\n      dup2\n        /* \"#utility.yul\":2260:2261   */\n      dup2\n        /* \"#utility.yul\":2257:2270   */\n      gt\n        /* \"#utility.yul\":2254:2345   */\n      iszero\n      tag_309\n      jumpi\n        /* \"#utility.yul\":2333:2334   */\n      0x00\n        /* \"#utility.yul\":2328:2330   */\n      0x40\n        /* \"#utility.yul\":2319:2325   */\n      dup4\n        /* \"#utility.yul\":2308:2317   */\n      dup8\n        /* \"#utility.yul\":2304:2326   */\n      add\n        /* \"#utility.yul\":2300:2331   */\n      add\n        /* \"#utility.yul\":2293:2335   */\n      mstore\n        /* \"#utility.yul\":2254:2345   */\n    tag_309:\n      pop\n        /* \"#utility.yul\":2406:2408   */\n      0x1f\n        /* \"#utility.yul\":2385:2400   */\n      add\n      not(0x1f)\n        /* \"#utility.yul\":2381:2410   */\n      and\n        /* \"#utility.yul\":2366:2411   */\n      swap3\n      swap1\n      swap3\n      add\n        /* \"#utility.yul\":2413:2415   */\n      0x40\n        /* \"#utility.yul\":2362:2416   */\n      add\n      swap4\n        /* \"#utility.yul\":1825:2422   */\n      swap3\n      pop\n      pop\n      pop\n      jump\t// out\n        /* \"#utility.yul\":4005:4361   */\n    tag_152:\n        /* \"#utility.yul\":4207:4209   */\n      0x20\n        /* \"#utility.yul\":4189:4210   */\n      dup1\n      dup3\n      mstore\n        /* \"#utility.yul\":4226:4244   */\n      dup2\n      dup2\n      add\n        /* \"#utility.yul\":4219:4249   */\n      mstore\n        /* \"#utility.yul\":4285:4319   */\n      0x4f776e61626c653a2063616c6c6572206973206e6f7420746865206f776e6572\n        /* \"#utility.yul\":4280:4282   */\n      0x40\n        /* \"#utility.yul\":4265:4283   */\n      dup3\n      add\n        /* \"#utility.yul\":4258:4320   */\n      mstore\n        /* \"#utility.yul\":4352:4354   */\n      0x60\n        /* \"#utility.yul\":4337:4355   */\n      add\n      swap1\n        /* \"#utility.yul\":4005:4361   */\n      jump\t// out\n        /* \"#utility.yul\":5575:5977   */\n    tag_132:\n        /* \"#utility.yul\":5777:5779   */\n      0x20\n        /* \"#utility.yul\":5759:5780   */\n      dup1\n      dup3\n      mstore\n        /* \"#utility.yul\":5816:5818   */\n      0x26\n        /* \"#utility.yul\":5796:5814   */\n      swap1\n      dup3\n      add\n        /* \"#utility.yul\":5789:5819   */\n      mstore\n        /* \"#utility.yul\":5855:5889   */\n      0x4572726f723a207472616e736665722066726f6d20626c61636b6c6973742061\n        /* \"#utility.yul\":5850:5852   */\n      0x40\n        /* \"#utility.yul\":5835:5853   */\n      dup3\n      add\n        /* \"#utility.yul\":5828:5890   */\n      mstore\n      shl(0xd0, 0x646472657373)\n        /* \"#utility.yul\":5921:5923   */\n      0x60\n        /* \"#utility.yul\":5906:5924   */\n      dup3\n      add\n        /* \"#utility.yul\":5899:5935   */\n      mstore\n        /* \"#utility.yul\":5967:5970   */\n      0x80\n        /* \"#utility.yul\":5952:5971   */\n      add\n      swap1\n        /* \"#utility.yul\":5575:5977   */\n      jump\t// out\n        /* \"#utility.yul\":6353:6481   */\n    tag_258:\n        /* \"#utility.yul\":6393:6396   */\n      0x00\n        /* \"#utility.yul\":6424:6425   */\n      dup3\n        /* \"#utility.yul\":6420:6426   */\n      not\n        /* \"#utility.yul\":6417:6418   */\n      dup3\n        /* \"#utility.yul\":6414:6427   */\n      gt\n        /* \"#utility.yul\":6411:6450   */\n      iszero\n      tag_323\n      jumpi\n        /* \"#utility.yul\":6430:6448   */\n      tag_323\n      tag_324\n      jump\t// in\n    tag_323:\n      pop\n        /* \"#utility.yul\":6466:6475   */\n      add\n      swap1\n        /* \"#utility.yul\":6353:6481   */\n      jump\t// out\n        /* \"#utility.yul\":6486:6703   */\n    tag_279:\n        /* \"#utility.yul\":6526:6527   */\n      0x00\n        /* \"#utility.yul\":6552:6553   */\n      dup3\n        /* \"#utility.yul\":6542:6674   */\n      tag_326\n      jumpi\n        /* \"#utility.yul\":6596:6606   */\n      0x4e487b71\n        /* \"#utility.yul\":6591:6594   */\n      0xe0\n        /* \"#utility.yul\":6587:6607   */\n      shl\n        /* \"#utility.yul\":6584:6585   */\n      0x00\n        /* \"#utility.yul\":6577:6608   */\n      mstore\n        /* \"#utility.yul\":6631:6635   */\n      0x12\n        /* \"#utility.yul\":6628:6629   */\n      0x04\n        /* \"#utility.yul\":6621:6636   */\n      mstore\n        /* \"#utility.yul\":6659:6663   */\n      0x24\n        /* \"#utility.yul\":6656:6657   */\n      0x00\n        /* \"#utility.yul\":6649:6664   */\n      revert\n        /* \"#utility.yul\":6542:6674   */\n    tag_326:\n      pop\n        /* \"#utility.yul\":6688:6697   */\n      div\n      swap1\n        /* \"#utility.yul\":6486:6703   */\n      jump\t// out\n        /* \"#utility.yul\":6708:6876   */\n    tag_276:\n        /* \"#utility.yul\":6748:6755   */\n      0x00\n        /* \"#utility.yul\":6814:6815   */\n      dup2\n        /* \"#utility.yul\":6810:6811   */\n      0x00\n        /* \"#utility.yul\":6806:6812   */\n      not\n        /* \"#utility.yul\":6802:6816   */\n      div\n        /* \"#utility.yul\":6799:6800   */\n      dup4\n        /* \"#utility.yul\":6796:6817   */\n      gt\n        /* \"#utility.yul\":6791:6792   */\n      dup3\n        /* \"#utility.yul\":6784:6793   */\n      iszero\n        /* \"#utility.yul\":6777:6794   */\n      iszero\n        /* \"#utility.yul\":6773:6818   */\n      and\n        /* \"#utility.yul\":6770:6841   */\n      iszero\n      tag_329\n      jumpi\n        /* \"#utility.yul\":6821:6839   */\n      tag_329\n      tag_324\n      jump\t// in\n    tag_329:\n      pop\n        /* \"#utility.yul\":6861:6870   */\n      mul\n      swap1\n        /* \"#utility.yul\":6708:6876   */\n      jump\t// out\n        /* \"#utility.yul\":6881:7006   */\n    tag_282:\n        /* \"#utility.yul\":6921:6925   */\n      0x00\n        /* \"#utility.yul\":6949:6950   */\n      dup3\n        /* \"#utility.yul\":6946:6947   */\n      dup3\n        /* \"#utility.yul\":6943:6951   */\n      lt\n        /* \"#utility.yul\":6940:6974   */\n      iszero\n      tag_332\n      jumpi\n        /* \"#utility.yul\":6954:6972   */\n      tag_332\n      tag_324\n      jump\t// in\n    tag_332:\n      pop\n        /* \"#utility.yul\":6991:7000   */\n      sub\n      swap1\n        /* \"#utility.yul\":6881:7006   */\n      jump\t// out\n        /* \"#utility.yul\":7011:7391   */\n    tag_118:\n        /* \"#utility.yul\":7090:7091   */\n      0x01\n        /* \"#utility.yul\":7086:7098   */\n      dup2\n      dup2\n      shr\n      swap1\n        /* \"#utility.yul\":7133:7145   */\n      dup3\n      and\n      dup1\n        /* \"#utility.yul\":7154:7215   */\n      tag_334\n      jumpi\n        /* \"#utility.yul\":7208:7212   */\n      0x7f\n        /* \"#utility.yul\":7200:7206   */\n      dup3\n        /* \"#utility.yul\":7196:7213   */\n      and\n        /* \"#utility.yul\":7186:7213   */\n      swap2\n      pop\n        /* \"#utility.yul\":7154:7215   */\n    tag_334:\n        /* \"#utility.yul\":7261:7263   */\n      0x20\n        /* \"#utility.yul\":7253:7259   */\n      dup3\n        /* \"#utility.yul\":7250:7264   */\n      lt\n        /* \"#utility.yul\":7230:7248   */\n      dup2\n        /* \"#utility.yul\":7227:7265   */\n      eq\n        /* \"#utility.yul\":7224:7385   */\n      iszero\n      tag_335\n      jumpi\n        /* \"#utility.yul\":7307:7317   */\n      0x4e487b71\n        /* \"#utility.yul\":7302:7305   */\n      0xe0\n        /* \"#utility.yul\":7298:7318   */\n      shl\n        /* \"#utility.yul\":7295:7296   */\n      0x00\n        /* \"#utility.yul\":7288:7319   */\n      mstore\n        /* \"#utility.yul\":7342:7346   */\n      0x22\n        /* \"#utility.yul\":7339:7340   */\n      0x04\n        /* \"#utility.yul\":7332:7347   */\n      mstore\n        /* \"#utility.yul\":7370:7374   */\n      0x24\n        /* \"#utility.yul\":7367:7368   */\n      0x00\n        /* \"#utility.yul\":7360:7375   */\n      revert\n        /* \"#utility.yul\":7224:7385   */\n    tag_335:\n      pop\n        /* \"#utility.yul\":7011:7391   */\n      swap2\n      swap1\n      pop\n      jump\t// out\n        /* \"#utility.yul\":7396:7523   */\n    tag_324:\n        /* \"#utility.yul\":7457:7467   */\n      0x4e487b71\n        /* \"#utility.yul\":7452:7455   */\n      0xe0\n        /* \"#utility.yul\":7448:7468   */\n      shl\n        /* \"#utility.yul\":7445:7446   */\n      0x00\n        /* \"#utility.yul\":7438:7469   */\n      mstore\n        /* \"#utility.yul\":7488:7492   */\n      0x11\n        /* \"#utility.yul\":7485:7486   */\n      0x04\n        /* \"#utility.yul\":7478:7493   */\n      mstore\n        /* \"#utility.yul\":7512:7516   */\n      0x24\n        /* \"#utility.yul\":7509:7510   */\n      0x00\n        /* \"#utility.yul\":7502:7517   */\n      revert\n    stop\n    data_4f3506f4ba71c79c3cbd442a3afeb30e9b27af2d84e116a4385b34e267d2287e 42455032303a207472616e7366657220616d6f756e74206578636565647320616c6c6f77616e6365\n    data_a91efd7a65ef5b4ae4d6568d674798b78a5a89184dd296c100513251c22d3e73 42455032303a207472616e7366657220616d6f756e7420657863656564732062616c616e6365\n    data_ada389e1fc24a8587c776340efb91b36e675792ab631816100d55df0b5cf3cbc ddf252ad1be2c89b69c2b068fc378daa952ba7f163c4a11628f55a4df523b3ef\n    data_b7060b3538dcd3ddc8a941c91636a8115a1aa46914747fd9809d543bbb46cd22 42455032303a2064656372656173656420616c6c6f77616e63652062656c6f77207a65726f\n    data_deaa84b30175fd0578812c46240362b7914652a35e6707ad7e1556891e4ae032 42455032303a206275726e20616d6f756e7420657863656564732062616c616e6365\n\n    auxdata: 0xa26469706673582212208f71437f442daa7037d9300683f7d3cdc49ce3475c2dadc381403ebe07359ffb64736f6c63430008070033\n}\n",
				"bytecode": {
					"linkReferences": {},
					"object": "6080604052600780546001600160a01b031916732c40b38ef349aea24aa48ed1a6ed3db3860effa31790553480156200003757600080fd5b5062000043336200011b565b6040805180820190915260098082526848616c6f206e6f646560b81b602090920191825262000075916006916200016b565b506040805180820190915260048082526348616c6f60e01b6020909201918252620000a3916005916200016b565b506004805460ff191660121790556d04ee2d6d415b85acef810000000060038190553360008181526001602052604080822084905551919290917fddf252ad1be2c89b69c2b068fc378daa952ba7f163c4a11628f55a4df523b3ef916200010d9190815260200190565b60405180910390a36200024e565b600080546001600160a01b038381166001600160a01b0319831681178455604051919092169283917f8be0079c531659141344cd1fd0a4f28419497f9722a3daafe3b4186f6b6457e09190a35050565b828054620001799062000211565b90600052602060002090601f0160209004810192826200019d5760008555620001e8565b82601f10620001b857805160ff1916838001178555620001e8565b82800160010185558215620001e8579182015b82811115620001e8578251825591602001919060010190620001cb565b50620001f6929150620001fa565b5090565b5b80821115620001f65760008155600101620001fb565b600181811c908216806200022657607f821691505b602082108114156200024857634e487b7160e01b600052602260045260246000fd5b50919050565b611152806200025e6000396000f3fe608060405234801561001057600080fd5b506004361061014d5760003560e01c8063715018a6116100c3578063a457c2d71161007c578063a457c2d7146102c1578063a9059cbb146102d4578063b09f1266146102e7578063d28d8852146102ef578063dd62ed3e146102f7578063f2fde38b1461033057600080fd5b8063715018a614610255578063893d20e81461025d5780638da5cb5b1461028257806395d89b4114610293578063a0712d681461029b578063a2179ab0146102ae57600080fd5b806332424aa31161011557806332424aa3146101d157806339509351146101de578063417c73a7146101f157806342966c68146102065780634a49ac4c1461021957806370a082311461022c57600080fd5b806306fdde0314610152578063095ea7b31461017057806318160ddd1461019357806323b872dd146101a5578063313ce567146101b8575b600080fd5b61015a610343565b6040516101679190610ed6565b60405180910390f35b61018361017e366004610e93565b6103d5565b6040519015158152602001610167565b6003545b604051908152602001610167565b6101836101b3366004610e57565b6103eb565b60045460ff165b60405160ff9091168152602001610167565b6004546101bf9060ff1681565b6101836101ec366004610e93565b610494565b6102046101ff366004610e09565b6104ca565b005b610183610214366004610ebd565b610518565b610204610227366004610e09565b61052c565b61019761023a366004610e09565b6001600160a01b031660009081526001602052604090205490565b610204610577565b6000546001600160a01b03165b6040516001600160a01b039091168152602001610167565b6000546001600160a01b031661026a565b61015a6105ad565b6101836102a9366004610ebd565b6105bc565b60075461026a906001600160a01b031681565b6101836102cf366004610e93565b6105f6565b6101836102e2366004610e93565b610645565b61015a610689565b61015a610717565b610197610305366004610e24565b6001600160a01b03918216600090815260026020908152604080832093909416825291909152205490565b61020461033e366004610e09565b610724565b60606006805461035290611016565b80601f016020809104026020016040519081016040528092919081815260200182805461037e90611016565b80156103cb5780601f106103a0576101008083540402835291602001916103cb565b820191906000526020600020905b8154815290600101906020018083116103ae57829003601f168201915b5050505050905090565b60006103e23384846107bf565b50600192915050565b6001600160a01b03821660009081526008602052604081205460ff161561042d5760405162461bcd60e51b815260040161042490610f60565b60405180910390fd5b6104388484846108e4565b61048a843361048585604051806060016040528060288152602001611068602891396001600160a01b038a1660009081526002602090815260408083203384529091529020549190610b7d565b6107bf565b5060019392505050565b3360008181526002602090815260408083206001600160a01b038716845290915281205490916103e29185906104859086610ba9565b6000546001600160a01b031633146104f45760405162461bcd60e51b815260040161042490610f2b565b6001600160a01b03166000908152600860205260409020805460ff19166001179055565b60006105243383610bbc565b506001919050565b6000546001600160a01b031633146105565760405162461bcd60e51b815260040161042490610f2b565b6001600160a01b03166000908152600860205260409020805460ff19169055565b6000546001600160a01b031633146105a15760405162461bcd60e51b815260040161042490610f2b565b6105ab6000610cb6565b565b60606005805461035290611016565b600080546001600160a01b031633146105e75760405162461bcd60e51b815260040161042490610f2b565b6105243383610d06565b919050565b60006103e23384610485856040518060600160405280602581526020016110d6602591393360009081526002602090815260408083206001600160a01b038d1684529091529020549190610b7d565b6001600160a01b03821660009081526008602052604081205460ff161561067e5760405162461bcd60e51b815260040161042490610f60565b6103e23384846108e4565b6005805461069690611016565b80601f01602080910402602001604051908101604052809291908181526020018280546106c290611016565b801561070f5780601f106106e45761010080835404028352916020019161070f565b820191906000526020600020905b8154815290600101906020018083116106f257829003601f168201915b505050505081565b6006805461069690611016565b6000546001600160a01b0316331461074e5760405162461bcd60e51b815260040161042490610f2b565b6001600160a01b0381166107b35760405162461bcd60e51b815260206004820152602660248201527f4f776e61626c653a206e6577206f776e657220697320746865207a65726f206160448201526564647265737360d01b6064820152608401610424565b6107bc81610cb6565b50565b6001600160a01b0383166108215760405162461bcd60e51b8152602060048201526024808201527f42455032303a20617070726f76652066726f6d20746865207a65726f206164646044820152637265737360e01b6064820152608401610424565b6001600160a01b0382166108825760405162461bcd60e51b815260206004820152602260248201527f42455032303a20617070726f766520746f20746865207a65726f206164647265604482015261737360f01b6064820152608401610424565b6001600160a01b0383811660008181526002602090815260408083209487168084529482529182902085905590518481527f8c5be1e5ebec7d5bd14f71427d1e84f3dd0314c0f7b2291e5b200ac8c7c3b92591015b60405180910390a3505050565b6001600160a01b0383166109485760405162461bcd60e51b815260206004820152602560248201527f42455032303a207472616e736665722066726f6d20746865207a65726f206164604482015264647265737360d81b6064820152608401610424565b6001600160a01b0382166109aa5760405162461bcd60e51b815260206004820152602360248201527f42455032303a207472616e7366657220746f20746865207a65726f206164647260448201526265737360e81b6064820152608401610424565b6109e781604051806060016040528060268152602001611090602691396001600160a01b0386166000908152600160205260409020549190610b7d565b6001600160a01b03808516600090815260016020526040902091909155600754838216911614610b18576000610a296064610a2384600a610dce565b90610dda565b9050610a57610a388383610de6565b6001600160a01b03851660009081526001602052604090205490610ba9565b6001600160a01b0380851660008181526001602052604090209290925585166000805160206110b6833981519152610a8f8585610de6565b60405190815260200160405180910390a36007546001600160a01b0316600090815260016020526040902054610ac59082610ba9565b600780546001600160a01b03908116600090815260016020908152604091829020949094559154915184815291811692908716916000805160206110b6833981519152910160405180910390a350505050565b6001600160a01b038216600090815260016020526040902054610b3b9082610ba9565b6001600160a01b0380841660008181526001602052604090819020939093559151908516906000805160206110b6833981519152906108d79085815260200190565b60008184841115610ba15760405162461bcd60e51b81526004016104249190610ed6565b505050900390565b6000610bb58284610fa6565b9392505050565b6001600160a01b038216610c1c5760405162461bcd60e51b815260206004820152602160248201527f42455032303a206275726e2066726f6d20746865207a65726f206164647265736044820152607360f81b6064820152608401610424565b610c59816040518060600160405280602281526020016110fb602291396001600160a01b0385166000908152600160205260409020549190610b7d565b6001600160a01b038316600090815260016020526040902055600354610c7f9082610de6565b6003556040518181526000906001600160a01b038416906000805160206110b6833981519152906020015b60405180910390a35050565b600080546001600160a01b038381166001600160a01b0319831681178455604051919092169283917f8be0079c531659141344cd1fd0a4f28419497f9722a3daafe3b4186f6b6457e09190a35050565b6001600160a01b038216610d5c5760405162461bcd60e51b815260206004820152601f60248201527f42455032303a206d696e7420746f20746865207a65726f2061646472657373006044820152606401610424565b600354610d699082610ba9565b6003556001600160a01b038216600090815260016020526040902054610d8f9082610ba9565b6001600160a01b0383166000818152600160205260408082209390935591519091906000805160206110b683398151915290610caa9085815260200190565b6000610bb58284610fe0565b6000610bb58284610fbe565b6000610bb58284610fff565b80356001600160a01b03811681146105f157600080fd5b600060208284031215610e1b57600080fd5b610bb582610df2565b60008060408385031215610e3757600080fd5b610e4083610df2565b9150610e4e60208401610df2565b90509250929050565b600080600060608486031215610e6c57600080fd5b610e7584610df2565b9250610e8360208501610df2565b9150604084013590509250925092565b60008060408385031215610ea657600080fd5b610eaf83610df2565b946020939093013593505050565b600060208284031215610ecf57600080fd5b5035919050565b600060208083528351808285015260005b81811015610f0357858101830151858201604001528201610ee7565b81811115610f15576000604083870101525b50601f01601f1916929092016040019392505050565b6020808252818101527f4f776e61626c653a2063616c6c6572206973206e6f7420746865206f776e6572604082015260600190565b60208082526026908201527f4572726f723a207472616e736665722066726f6d20626c61636b6c697374206160408201526564647265737360d01b606082015260800190565b60008219821115610fb957610fb9611051565b500190565b600082610fdb57634e487b7160e01b600052601260045260246000fd5b500490565b6000816000190483118215151615610ffa57610ffa611051565b500290565b60008282101561101157611011611051565b500390565b600181811c9082168061102a57607f821691505b6020821081141561104b57634e487b7160e01b600052602260045260246000fd5b50919050565b634e487b7160e01b600052601160045260246000fdfe42455032303a207472616e7366657220616d6f756e74206578636565647320616c6c6f77616e636542455032303a207472616e7366657220616d6f756e7420657863656564732062616c616e6365ddf252ad1be2c89b69c2b068fc378daa952ba7f163c4a11628f55a4df523b3ef42455032303a2064656372656173656420616c6c6f77616e63652062656c6f77207a65726f42455032303a206275726e20616d6f756e7420657863656564732062616c616e6365a26469706673582212208f71437f442daa7037d9300683f7d3cdc49ce3475c2dadc381403ebe07359ffb64736f6c63430008070033",
					"opcodes": "PUSH1 0x80 PUSH1 0x40 MSTORE PUSH1 0x7 DUP1 SLOAD PUSH1 0x1 PUSH1 0x1 PUSH1 0xA0 SHL SUB NOT AND PUSH20 0x2C40B38EF349AEA24AA48ED1A6ED3DB3860EFFA3 OR SWAP1 SSTORE CALLVALUE DUP1 ISZERO PUSH3 0x37 JUMPI PUSH1 0x0 DUP1 REVERT JUMPDEST POP PUSH3 0x43 CALLER PUSH3 0x11B JUMP JUMPDEST PUSH1 0x40 DUP1 MLOAD DUP1 DUP3 ADD SWAP1 SWAP2 MSTORE PUSH1 0x9 DUP1 DUP3 MSTORE PUSH9 0x48616C6F206E6F6465 PUSH1 0xB8 SHL PUSH1 0x20 SWAP1 SWAP3 ADD SWAP2 DUP3 MSTORE PUSH3 0x75 SWAP2 PUSH1 0x6 SWAP2 PUSH3 0x16B JUMP JUMPDEST POP PUSH1 0x40 DUP1 MLOAD DUP1 DUP3 ADD SWAP1 SWAP2 MSTORE PUSH1 0x4 DUP1 DUP3 MSTORE PUSH4 0x48616C6F PUSH1 0xE0 SHL PUSH1 0x20 SWAP1 SWAP3 ADD SWAP2 DUP3 MSTORE PUSH3 0xA3 SWAP2 PUSH1 0x5 SWAP2 PUSH3 0x16B JUMP JUMPDEST POP PUSH1 0x4 DUP1 SLOAD PUSH1 0xFF NOT AND PUSH1 0x12 OR SWAP1 SSTORE PUSH14 0x4EE2D6D415B85ACEF8100000000 PUSH1 0x3 DUP2 SWAP1 SSTORE CALLER PUSH1 0x0 DUP2 DUP2 MSTORE PUSH1 0x1 PUSH1 0x20 MSTORE PUSH1 0x40 DUP1 DUP3 KECCAK256 DUP5 SWAP1 SSTORE MLOAD SWAP2 SWAP3 SWAP1 SWAP2 PUSH32 0xDDF252AD1BE2C89B69C2B068FC378DAA952BA7F163C4A11628F55A4DF523B3EF SWAP2 PUSH3 0x10D SWAP2 SWAP1 DUP2 MSTORE PUSH1 0x20 ADD SWAP1 JUMP JUMPDEST PUSH1 0x40 MLOAD DUP1 SWAP2 SUB SWAP1 LOG3 PUSH3 0x24E JUMP JUMPDEST PUSH1 0x0 DUP1 SLOAD PUSH1 0x1 PUSH1 0x1 PUSH1 0xA0 SHL SUB DUP4 DUP2 AND PUSH1 0x1 PUSH1 0x1 PUSH1 0xA0 SHL SUB NOT DUP4 AND DUP2 OR DUP5 SSTORE PUSH1 0x40 MLOAD SWAP2 SWAP1 SWAP3 AND SWAP3 DUP4 SWAP2 PUSH32 0x8BE0079C531659141344CD1FD0A4F28419497F9722A3DAAFE3B4186F6B6457E0 SWAP2 SWAP1 LOG3 POP POP JUMP JUMPDEST DUP3 DUP1 SLOAD PUSH3 0x179 SWAP1 PUSH3 0x211 JUMP JUMPDEST SWAP1 PUSH1 0x0 MSTORE PUSH1 0x20 PUSH1 0x0 KECCAK256 SWAP1 PUSH1 0x1F ADD PUSH1 0x20 SWAP1 DIV DUP2 ADD SWAP3 DUP3 PUSH3 0x19D JUMPI PUSH1 0x0 DUP6 SSTORE PUSH3 0x1E8 JUMP JUMPDEST DUP3 PUSH1 0x1F LT PUSH3 0x1B8 JUMPI DUP1 MLOAD PUSH1 0xFF NOT AND DUP4 DUP1 ADD OR DUP6 SSTORE PUSH3 0x1E8 JUMP JUMPDEST DUP3 DUP1 ADD PUSH1 0x1 ADD DUP6 SSTORE DUP3 ISZERO PUSH3 0x1E8 JUMPI SWAP2 DUP3 ADD JUMPDEST DUP3 DUP2 GT ISZERO PUSH3 0x1E8 JUMPI DUP3 MLOAD DUP3 SSTORE SWAP2 PUSH1 0x20 ADD SWAP2 SWAP1 PUSH1 0x1 ADD SWAP1 PUSH3 0x1CB JUMP JUMPDEST POP PUSH3 0x1F6 SWAP3 SWAP2 POP PUSH3 0x1FA JUMP JUMPDEST POP SWAP1 JUMP JUMPDEST JUMPDEST DUP1 DUP3 GT ISZERO PUSH3 0x1F6 JUMPI PUSH1 0x0 DUP2 SSTORE PUSH1 0x1 ADD PUSH3 0x1FB JUMP JUMPDEST PUSH1 0x1 DUP2 DUP2 SHR SWAP1 DUP3 AND DUP1 PUSH3 0x226 JUMPI PUSH1 0x7F DUP3 AND SWAP2 POP JUMPDEST PUSH1 0x20 DUP3 LT DUP2 EQ ISZERO PUSH3 0x248 JUMPI PUSH4 0x4E487B71 PUSH1 0xE0 SHL PUSH1 0x0 MSTORE PUSH1 0x22 PUSH1 0x4 MSTORE PUSH1 0x24 PUSH1 0x0 REVERT JUMPDEST POP SWAP2 SWAP1 POP JUMP JUMPDEST PUSH2 0x1152 DUP1 PUSH3 0x25E PUSH1 0x0 CODECOPY PUSH1 0x0 RETURN INVALID PUSH1 0x80 PUSH1 0x40 MSTORE CALLVALUE DUP1 ISZERO PUSH2 0x10 JUMPI PUSH1 0x0 DUP1 REVERT JUMPDEST POP PUSH1 0x4 CALLDATASIZE LT PUSH2 0x14D JUMPI PUSH1 0x0 CALLDATALOAD PUSH1 0xE0 SHR DUP1 PUSH4 0x715018A6 GT PUSH2 0xC3 JUMPI DUP1 PUSH4 0xA457C2D7 GT PUSH2 0x7C JUMPI DUP1 PUSH4 0xA457C2D7 EQ PUSH2 0x2C1 JUMPI DUP1 PUSH4 0xA9059CBB EQ PUSH2 0x2D4 JUMPI DUP1 PUSH4 0xB09F1266 EQ PUSH2 0x2E7 JUMPI DUP1 PUSH4 0xD28D8852 EQ PUSH2 0x2EF JUMPI DUP1 PUSH4 0xDD62ED3E EQ PUSH2 0x2F7 JUMPI DUP1 PUSH4 0xF2FDE38B EQ PUSH2 0x330 JUMPI PUSH1 0x0 DUP1 REVERT JUMPDEST DUP1 PUSH4 0x715018A6 EQ PUSH2 0x255 JUMPI DUP1 PUSH4 0x893D20E8 EQ PUSH2 0x25D JUMPI DUP1 PUSH4 0x8DA5CB5B EQ PUSH2 0x282 JUMPI DUP1 PUSH4 0x95D89B41 EQ PUSH2 0x293 JUMPI DUP1 PUSH4 0xA0712D68 EQ PUSH2 0x29B JUMPI DUP1 PUSH4 0xA2179AB0 EQ PUSH2 0x2AE JUMPI PUSH1 0x0 DUP1 REVERT JUMPDEST DUP1 PUSH4 0x32424AA3 GT PUSH2 0x115 JUMPI DUP1 PUSH4 0x32424AA3 EQ PUSH2 0x1D1 JUMPI DUP1 PUSH4 0x39509351 EQ PUSH2 0x1DE JUMPI DUP1 PUSH4 0x417C73A7 EQ PUSH2 0x1F1 JUMPI DUP1 PUSH4 0x42966C68 EQ PUSH2 0x206 JUMPI DUP1 PUSH4 0x4A49AC4C EQ PUSH2 0x219 JUMPI DUP1 PUSH4 0x70A08231 EQ PUSH2 0x22C JUMPI PUSH1 0x0 DUP1 REVERT JUMPDEST DUP1 PUSH4 0x6FDDE03 EQ PUSH2 0x152 JUMPI DUP1 PUSH4 0x95EA7B3 EQ PUSH2 0x170 JUMPI DUP1 PUSH4 0x18160DDD EQ PUSH2 0x193 JUMPI DUP1 PUSH4 0x23B872DD EQ PUSH2 0x1A5 JUMPI DUP1 PUSH4 0x313CE567 EQ PUSH2 0x1B8 JUMPI JUMPDEST PUSH1 0x0 DUP1 REVERT JUMPDEST PUSH2 0x15A PUSH2 0x343 JUMP JUMPDEST PUSH1 0x40 MLOAD PUSH2 0x167 SWAP2 SWAP1 PUSH2 0xED6 JUMP JUMPDEST PUSH1 0x40 MLOAD DUP1 SWAP2 SUB SWAP1 RETURN JUMPDEST PUSH2 0x183 PUSH2 0x17E CALLDATASIZE PUSH1 0x4 PUSH2 0xE93 JUMP JUMPDEST PUSH2 0x3D5 JUMP JUMPDEST PUSH1 0x40 MLOAD SWAP1 ISZERO ISZERO DUP2 MSTORE PUSH1 0x20 ADD PUSH2 0x167 JUMP JUMPDEST PUSH1 0x3 SLOAD JUMPDEST PUSH1 0x40 MLOAD SWAP1 DUP2 MSTORE PUSH1 0x20 ADD PUSH2 0x167 JUMP JUMPDEST PUSH2 0x183 PUSH2 0x1B3 CALLDATASIZE PUSH1 0x4 PUSH2 0xE57 JUMP JUMPDEST PUSH2 0x3EB JUMP JUMPDEST PUSH1 0x4 SLOAD PUSH1 0xFF AND JUMPDEST PUSH1 0x40 MLOAD PUSH1 0xFF SWAP1 SWAP2 AND DUP2 MSTORE PUSH1 0x20 ADD PUSH2 0x167 JUMP JUMPDEST PUSH1 0x4 SLOAD PUSH2 0x1BF SWAP1 PUSH1 0xFF AND DUP2 JUMP JUMPDEST PUSH2 0x183 PUSH2 0x1EC CALLDATASIZE PUSH1 0x4 PUSH2 0xE93 JUMP JUMPDEST PUSH2 0x494 JUMP JUMPDEST PUSH2 0x204 PUSH2 0x1FF CALLDATASIZE PUSH1 0x4 PUSH2 0xE09 JUMP JUMPDEST PUSH2 0x4CA JUMP JUMPDEST STOP JUMPDEST PUSH2 0x183 PUSH2 0x214 CALLDATASIZE PUSH1 0x4 PUSH2 0xEBD JUMP JUMPDEST PUSH2 0x518 JUMP JUMPDEST PUSH2 0x204 PUSH2 0x227 CALLDATASIZE PUSH1 0x4 PUSH2 0xE09 JUMP JUMPDEST PUSH2 0x52C JUMP JUMPDEST PUSH2 0x197 PUSH2 0x23A CALLDATASIZE PUSH1 0x4 PUSH2 0xE09 JUMP JUMPDEST PUSH1 0x1 PUSH1 0x1 PUSH1 0xA0 SHL SUB AND PUSH1 0x0 SWAP1 DUP2 MSTORE PUSH1 0x1 PUSH1 0x20 MSTORE PUSH1 0x40 SWAP1 KECCAK256 SLOAD SWAP1 JUMP JUMPDEST PUSH2 0x204 PUSH2 0x577 JUMP JUMPDEST PUSH1 0x0 SLOAD PUSH1 0x1 PUSH1 0x1 PUSH1 0xA0 SHL SUB AND JUMPDEST PUSH1 0x40 MLOAD PUSH1 0x1 PUSH1 0x1 PUSH1 0xA0 SHL SUB SWAP1 SWAP2 AND DUP2 MSTORE PUSH1 0x20 ADD PUSH2 0x167 JUMP JUMPDEST PUSH1 0x0 SLOAD PUSH1 0x1 PUSH1 0x1 PUSH1 0xA0 SHL SUB AND PUSH2 0x26A JUMP JUMPDEST PUSH2 0x15A PUSH2 0x5AD JUMP JUMPDEST PUSH2 0x183 PUSH2 0x2A9 CALLDATASIZE PUSH1 0x4 PUSH2 0xEBD JUMP JUMPDEST PUSH2 0x5BC JUMP JUMPDEST PUSH1 0x7 SLOAD PUSH2 0x26A SWAP1 PUSH1 0x1 PUSH1 0x1 PUSH1 0xA0 SHL SUB AND DUP2 JUMP JUMPDEST PUSH2 0x183 PUSH2 0x2CF CALLDATASIZE PUSH1 0x4 PUSH2 0xE93 JUMP JUMPDEST PUSH2 0x5F6 JUMP JUMPDEST PUSH2 0x183 PUSH2 0x2E2 CALLDATASIZE PUSH1 0x4 PUSH2 0xE93 JUMP JUMPDEST PUSH2 0x645 JUMP JUMPDEST PUSH2 0x15A PUSH2 0x689 JUMP JUMPDEST PUSH2 0x15A PUSH2 0x717 JUMP JUMPDEST PUSH2 0x197 PUSH2 0x305 CALLDATASIZE PUSH1 0x4 PUSH2 0xE24 JUMP JUMPDEST PUSH1 0x1 PUSH1 0x1 PUSH1 0xA0 SHL SUB SWAP2 DUP3 AND PUSH1 0x0 SWAP1 DUP2 MSTORE PUSH1 0x2 PUSH1 0x20 SWAP1 DUP2 MSTORE PUSH1 0x40 DUP1 DUP4 KECCAK256 SWAP4 SWAP1 SWAP5 AND DUP3 MSTORE SWAP2 SWAP1 SWAP2 MSTORE KECCAK256 SLOAD SWAP1 JUMP JUMPDEST PUSH2 0x204 PUSH2 0x33E CALLDATASIZE PUSH1 0x4 PUSH2 0xE09 JUMP JUMPDEST PUSH2 0x724 JUMP JUMPDEST PUSH1 0x60 PUSH1 0x6 DUP1 SLOAD PUSH2 0x352 SWAP1 PUSH2 0x1016 JUMP JUMPDEST DUP1 PUSH1 0x1F ADD PUSH1 0x20 DUP1 SWAP2 DIV MUL PUSH1 0x20 ADD PUSH1 0x40 MLOAD SWAP1 DUP2 ADD PUSH1 0x40 MSTORE DUP1 SWAP3 SWAP2 SWAP1 DUP2 DUP2 MSTORE PUSH1 0x20 ADD DUP3 DUP1 SLOAD PUSH2 0x37E SWAP1 PUSH2 0x1016 JUMP JUMPDEST DUP1 ISZERO PUSH2 0x3CB JUMPI DUP1 PUSH1 0x1F LT PUSH2 0x3A0 JUMPI PUSH2 0x100 DUP1 DUP4 SLOAD DIV MUL DUP4 MSTORE SWAP2 PUSH1 0x20 ADD SWAP2 PUSH2 0x3CB JUMP JUMPDEST DUP3 ADD SWAP2 SWAP1 PUSH1 0x0 MSTORE PUSH1 0x20 PUSH1 0x0 KECCAK256 SWAP1 JUMPDEST DUP2 SLOAD DUP2 MSTORE SWAP1 PUSH1 0x1 ADD SWAP1 PUSH1 0x20 ADD DUP1 DUP4 GT PUSH2 0x3AE JUMPI DUP3 SWAP1 SUB PUSH1 0x1F AND DUP3 ADD SWAP2 JUMPDEST POP POP POP POP POP SWAP1 POP SWAP1 JUMP JUMPDEST PUSH1 0x0 PUSH2 0x3E2 CALLER DUP5 DUP5 PUSH2 0x7BF JUMP JUMPDEST POP PUSH1 0x1 SWAP3 SWAP2 POP POP JUMP JUMPDEST PUSH1 0x1 PUSH1 0x1 PUSH1 0xA0 SHL SUB DUP3 AND PUSH1 0x0 SWAP1 DUP2 MSTORE PUSH1 0x8 PUSH1 0x20 MSTORE PUSH1 0x40 DUP2 KECCAK256 SLOAD PUSH1 0xFF AND ISZERO PUSH2 0x42D JUMPI PUSH1 0x40 MLOAD PUSH3 0x461BCD PUSH1 0xE5 SHL DUP2 MSTORE PUSH1 0x4 ADD PUSH2 0x424 SWAP1 PUSH2 0xF60 JUMP JUMPDEST PUSH1 0x40 MLOAD DUP1 SWAP2 SUB SWAP1 REVERT JUMPDEST PUSH2 0x438 DUP5 DUP5 DUP5 PUSH2 0x8E4 JUMP JUMPDEST PUSH2 0x48A DUP5 CALLER PUSH2 0x485 DUP6 PUSH1 0x40 MLOAD DUP1 PUSH1 0x60 ADD PUSH1 0x40 MSTORE DUP1 PUSH1 0x28 DUP2 MSTORE PUSH1 0x20 ADD PUSH2 0x1068 PUSH1 0x28 SWAP2 CODECOPY PUSH1 0x1 PUSH1 0x1 PUSH1 0xA0 SHL SUB DUP11 AND PUSH1 0x0 SWAP1 DUP2 MSTORE PUSH1 0x2 PUSH1 0x20 SWAP1 DUP2 MSTORE PUSH1 0x40 DUP1 DUP4 KECCAK256 CALLER DUP5 MSTORE SWAP1 SWAP2 MSTORE SWAP1 KECCAK256 SLOAD SWAP2 SWAP1 PUSH2 0xB7D JUMP JUMPDEST PUSH2 0x7BF JUMP JUMPDEST POP PUSH1 0x1 SWAP4 SWAP3 POP POP POP JUMP JUMPDEST CALLER PUSH1 0x0 DUP2 DUP2 MSTORE PUSH1 0x2 PUSH1 0x20 SWAP1 DUP2 MSTORE PUSH1 0x40 DUP1 DUP4 KECCAK256 PUSH1 0x1 PUSH1 0x1 PUSH1 0xA0 SHL SUB DUP8 AND DUP5 MSTORE SWAP1 SWAP2 MSTORE DUP2 KECCAK256 SLOAD SWAP1 SWAP2 PUSH2 0x3E2 SWAP2 DUP6 SWAP1 PUSH2 0x485 SWAP1 DUP7 PUSH2 0xBA9 JUMP JUMPDEST PUSH1 0x0 SLOAD PUSH1 0x1 PUSH1 0x1 PUSH1 0xA0 SHL SUB AND CALLER EQ PUSH2 0x4F4 JUMPI PUSH1 0x40 MLOAD PUSH3 0x461BCD PUSH1 0xE5 SHL DUP2 MSTORE PUSH1 0x4 ADD PUSH2 0x424 SWAP1 PUSH2 0xF2B JUMP JUMPDEST PUSH1 0x1 PUSH1 0x1 PUSH1 0xA0 SHL SUB AND PUSH1 0x0 SWAP1 DUP2 MSTORE PUSH1 0x8 PUSH1 0x20 MSTORE PUSH1 0x40 SWAP1 KECCAK256 DUP1 SLOAD PUSH1 0xFF NOT AND PUSH1 0x1 OR SWAP1 SSTORE JUMP JUMPDEST PUSH1 0x0 PUSH2 0x524 CALLER DUP4 PUSH2 0xBBC JUMP JUMPDEST POP PUSH1 0x1 SWAP2 SWAP1 POP JUMP JUMPDEST PUSH1 0x0 SLOAD PUSH1 0x1 PUSH1 0x1 PUSH1 0xA0 SHL SUB AND CALLER EQ PUSH2 0x556 JUMPI PUSH1 0x40 MLOAD PUSH3 0x461BCD PUSH1 0xE5 SHL DUP2 MSTORE PUSH1 0x4 ADD PUSH2 0x424 SWAP1 PUSH2 0xF2B JUMP JUMPDEST PUSH1 0x1 PUSH1 0x1 PUSH1 0xA0 SHL SUB AND PUSH1 0x0 SWAP1 DUP2 MSTORE PUSH1 0x8 PUSH1 0x20 MSTORE PUSH1 0x40 SWAP1 KECCAK256 DUP1 SLOAD PUSH1 0xFF NOT AND SWAP1 SSTORE JUMP JUMPDEST PUSH1 0x0 SLOAD PUSH1 0x1 PUSH1 0x1 PUSH1 0xA0 SHL SUB AND CALLER EQ PUSH2 0x5A1 JUMPI PUSH1 0x40 MLOAD PUSH3 0x461BCD PUSH1 0xE5 SHL DUP2 MSTORE PUSH1 0x4 ADD PUSH2 0x424 SWAP1 PUSH2 0xF2B JUMP JUMPDEST PUSH2 0x5AB PUSH1 0x0 PUSH2 0xCB6 JUMP JUMPDEST JUMP JUMPDEST PUSH1 0x60 PUSH1 0x5 DUP1 SLOAD PUSH2 0x352 SWAP1 PUSH2 0x1016 JUMP JUMPDEST PUSH1 0x0 DUP1 SLOAD PUSH1 0x1 PUSH1 0x1 PUSH1 0xA0 SHL SUB AND CALLER EQ PUSH2 0x5E7 JUMPI PUSH1 0x40 MLOAD PUSH3 0x461BCD PUSH1 0xE5 SHL DUP2 MSTORE PUSH1 0x4 ADD PUSH2 0x424 SWAP1 PUSH2 0xF2B JUMP JUMPDEST PUSH2 0x524 CALLER DUP4 PUSH2 0xD06 JUMP JUMPDEST SWAP2 SWAP1 POP JUMP JUMPDEST PUSH1 0x0 PUSH2 0x3E2 CALLER DUP5 PUSH2 0x485 DUP6 PUSH1 0x40 MLOAD DUP1 PUSH1 0x60 ADD PUSH1 0x40 MSTORE DUP1 PUSH1 0x25 DUP2 MSTORE PUSH1 0x20 ADD PUSH2 0x10D6 PUSH1 0x25 SWAP2 CODECOPY CALLER PUSH1 0x0 SWAP1 DUP2 MSTORE PUSH1 0x2 PUSH1 0x20 SWAP1 DUP2 MSTORE PUSH1 0x40 DUP1 DUP4 KECCAK256 PUSH1 0x1 PUSH1 0x1 PUSH1 0xA0 SHL SUB DUP14 AND DUP5 MSTORE SWAP1 SWAP2 MSTORE SWAP1 KECCAK256 SLOAD SWAP2 SWAP1 PUSH2 0xB7D JUMP JUMPDEST PUSH1 0x1 PUSH1 0x1 PUSH1 0xA0 SHL SUB DUP3 AND PUSH1 0x0 SWAP1 DUP2 MSTORE PUSH1 0x8 PUSH1 0x20 MSTORE PUSH1 0x40 DUP2 KECCAK256 SLOAD PUSH1 0xFF AND ISZERO PUSH2 0x67E JUMPI PUSH1 0x40 MLOAD PUSH3 0x461BCD PUSH1 0xE5 SHL DUP2 MSTORE PUSH1 0x4 ADD PUSH2 0x424 SWAP1 PUSH2 0xF60 JUMP JUMPDEST PUSH2 0x3E2 CALLER DUP5 DUP5 PUSH2 0x8E4 JUMP JUMPDEST PUSH1 0x5 DUP1 SLOAD PUSH2 0x696 SWAP1 PUSH2 0x1016 JUMP JUMPDEST DUP1 PUSH1 0x1F ADD PUSH1 0x20 DUP1 SWAP2 DIV MUL PUSH1 0x20 ADD PUSH1 0x40 MLOAD SWAP1 DUP2 ADD PUSH1 0x40 MSTORE DUP1 SWAP3 SWAP2 SWAP1 DUP2 DUP2 MSTORE PUSH1 0x20 ADD DUP3 DUP1 SLOAD PUSH2 0x6C2 SWAP1 PUSH2 0x1016 JUMP JUMPDEST DUP1 ISZERO PUSH2 0x70F JUMPI DUP1 PUSH1 0x1F LT PUSH2 0x6E4 JUMPI PUSH2 0x100 DUP1 DUP4 SLOAD DIV MUL DUP4 MSTORE SWAP2 PUSH1 0x20 ADD SWAP2 PUSH2 0x70F JUMP JUMPDEST DUP3 ADD SWAP2 SWAP1 PUSH1 0x0 MSTORE PUSH1 0x20 PUSH1 0x0 KECCAK256 SWAP1 JUMPDEST DUP2 SLOAD DUP2 MSTORE SWAP1 PUSH1 0x1 ADD SWAP1 PUSH1 0x20 ADD DUP1 DUP4 GT PUSH2 0x6F2 JUMPI DUP3 SWAP1 SUB PUSH1 0x1F AND DUP3 ADD SWAP2 JUMPDEST POP POP POP POP POP DUP2 JUMP JUMPDEST PUSH1 0x6 DUP1 SLOAD PUSH2 0x696 SWAP1 PUSH2 0x1016 JUMP JUMPDEST PUSH1 0x0 SLOAD PUSH1 0x1 PUSH1 0x1 PUSH1 0xA0 SHL SUB AND CALLER EQ PUSH2 0x74E JUMPI PUSH1 0x40 MLOAD PUSH3 0x461BCD PUSH1 0xE5 SHL DUP2 MSTORE PUSH1 0x4 ADD PUSH2 0x424 SWAP1 PUSH2 0xF2B JUMP JUMPDEST PUSH1 0x1 PUSH1 0x1 PUSH1 0xA0 SHL SUB DUP2 AND PUSH2 0x7B3 JUMPI PUSH1 0x40 MLOAD PUSH3 0x461BCD PUSH1 0xE5 SHL DUP2 MSTORE PUSH1 0x20 PUSH1 0x4 DUP3 ADD MSTORE PUSH1 0x26 PUSH1 0x24 DUP3 ADD MSTORE PUSH32 0x4F776E61626C653A206E6577206F776E657220697320746865207A65726F2061 PUSH1 0x44 DUP3 ADD MSTORE PUSH6 0x646472657373 PUSH1 0xD0 SHL PUSH1 0x64 DUP3 ADD MSTORE PUSH1 0x84 ADD PUSH2 0x424 JUMP JUMPDEST PUSH2 0x7BC DUP2 PUSH2 0xCB6 JUMP JUMPDEST POP JUMP JUMPDEST PUSH1 0x1 PUSH1 0x1 PUSH1 0xA0 SHL SUB DUP4 AND PUSH2 0x821 JUMPI PUSH1 0x40 MLOAD PUSH3 0x461BCD PUSH1 0xE5 SHL DUP2 MSTORE PUSH1 0x20 PUSH1 0x4 DUP3 ADD MSTORE PUSH1 0x24 DUP1 DUP3 ADD MSTORE PUSH32 0x42455032303A20617070726F76652066726F6D20746865207A65726F20616464 PUSH1 0x44 DUP3 ADD MSTORE PUSH4 0x72657373 PUSH1 0xE0 SHL PUSH1 0x64 DUP3 ADD MSTORE PUSH1 0x84 ADD PUSH2 0x424 JUMP JUMPDEST PUSH1 0x1 PUSH1 0x1 PUSH1 0xA0 SHL SUB DUP3 AND PUSH2 0x882 JUMPI PUSH1 0x40 MLOAD PUSH3 0x461BCD PUSH1 0xE5 SHL DUP2 MSTORE PUSH1 0x20 PUSH1 0x4 DUP3 ADD MSTORE PUSH1 0x22 PUSH1 0x24 DUP3 ADD MSTORE PUSH32 0x42455032303A20617070726F766520746F20746865207A65726F206164647265 PUSH1 0x44 DUP3 ADD MSTORE PUSH2 0x7373 PUSH1 0xF0 SHL PUSH1 0x64 DUP3 ADD MSTORE PUSH1 0x84 ADD PUSH2 0x424 JUMP JUMPDEST PUSH1 0x1 PUSH1 0x1 PUSH1 0xA0 SHL SUB DUP4 DUP2 AND PUSH1 0x0 DUP2 DUP2 MSTORE PUSH1 0x2 PUSH1 0x20 SWAP1 DUP2 MSTORE PUSH1 0x40 DUP1 DUP4 KECCAK256 SWAP5 DUP8 AND DUP1 DUP5 MSTORE SWAP5 DUP3 MSTORE SWAP2 DUP3 SWAP1 KECCAK256 DUP6 SWAP1 SSTORE SWAP1 MLOAD DUP5 DUP2 MSTORE PUSH32 0x8C5BE1E5EBEC7D5BD14F71427D1E84F3DD0314C0F7B2291E5B200AC8C7C3B925 SWAP2 ADD JUMPDEST PUSH1 0x40 MLOAD DUP1 SWAP2 SUB SWAP1 LOG3 POP POP POP JUMP JUMPDEST PUSH1 0x1 PUSH1 0x1 PUSH1 0xA0 SHL SUB DUP4 AND PUSH2 0x948 JUMPI PUSH1 0x40 MLOAD PUSH3 0x461BCD PUSH1 0xE5 SHL DUP2 MSTORE PUSH1 0x20 PUSH1 0x4 DUP3 ADD MSTORE PUSH1 0x25 PUSH1 0x24 DUP3 ADD MSTORE PUSH32 0x42455032303A207472616E736665722066726F6D20746865207A65726F206164 PUSH1 0x44 DUP3 ADD MSTORE PUSH5 0x6472657373 PUSH1 0xD8 SHL PUSH1 0x64 DUP3 ADD MSTORE PUSH1 0x84 ADD PUSH2 0x424 JUMP JUMPDEST PUSH1 0x1 PUSH1 0x1 PUSH1 0xA0 SHL SUB DUP3 AND PUSH2 0x9AA JUMPI PUSH1 0x40 MLOAD PUSH3 0x461BCD PUSH1 0xE5 SHL DUP2 MSTORE PUSH1 0x20 PUSH1 0x4 DUP3 ADD MSTORE PUSH1 0x23 PUSH1 0x24 DUP3 ADD MSTORE PUSH32 0x42455032303A207472616E7366657220746F20746865207A65726F2061646472 PUSH1 0x44 DUP3 ADD MSTORE PUSH3 0x657373 PUSH1 0xE8 SHL PUSH1 0x64 DUP3 ADD MSTORE PUSH1 0x84 ADD PUSH2 0x424 JUMP JUMPDEST PUSH2 0x9E7 DUP2 PUSH1 0x40 MLOAD DUP1 PUSH1 0x60 ADD PUSH1 0x40 MSTORE DUP1 PUSH1 0x26 DUP2 MSTORE PUSH1 0x20 ADD PUSH2 0x1090 PUSH1 0x26 SWAP2 CODECOPY PUSH1 0x1 PUSH1 0x1 PUSH1 0xA0 SHL SUB DUP7 AND PUSH1 0x0 SWAP1 DUP2 MSTORE PUSH1 0x1 PUSH1 0x20 MSTORE PUSH1 0x40 SWAP1 KECCAK256 SLOAD SWAP2 SWAP1 PUSH2 0xB7D JUMP JUMPDEST PUSH1 0x1 PUSH1 0x1 PUSH1 0xA0 SHL SUB DUP1 DUP6 AND PUSH1 0x0 SWAP1 DUP2 MSTORE PUSH1 0x1 PUSH1 0x20 MSTORE PUSH1 0x40 SWAP1 KECCAK256 SWAP2 SWAP1 SWAP2 SSTORE PUSH1 0x7 SLOAD DUP4 DUP3 AND SWAP2 AND EQ PUSH2 0xB18 JUMPI PUSH1 0x0 PUSH2 0xA29 PUSH1 0x64 PUSH2 0xA23 DUP5 PUSH1 0xA PUSH2 0xDCE JUMP JUMPDEST SWAP1 PUSH2 0xDDA JUMP JUMPDEST SWAP1 POP PUSH2 0xA57 PUSH2 0xA38 DUP4 DUP4 PUSH2 0xDE6 JUMP JUMPDEST PUSH1 0x1 PUSH1 0x1 PUSH1 0xA0 SHL SUB DUP6 AND PUSH1 0x0 SWAP1 DUP2 MSTORE PUSH1 0x1 PUSH1 0x20 MSTORE PUSH1 0x40 SWAP1 KECCAK256 SLOAD SWAP1 PUSH2 0xBA9 JUMP JUMPDEST PUSH1 0x1 PUSH1 0x1 PUSH1 0xA0 SHL SUB DUP1 DUP6 AND PUSH1 0x0 DUP2 DUP2 MSTORE PUSH1 0x1 PUSH1 0x20 MSTORE PUSH1 0x40 SWAP1 KECCAK256 SWAP3 SWAP1 SWAP3 SSTORE DUP6 AND PUSH1 0x0 DUP1 MLOAD PUSH1 0x20 PUSH2 0x10B6 DUP4 CODECOPY DUP2 MLOAD SWAP2 MSTORE PUSH2 0xA8F DUP6 DUP6 PUSH2 0xDE6 JUMP JUMPDEST PUSH1 0x40 MLOAD SWAP1 DUP2 MSTORE PUSH1 0x20 ADD PUSH1 0x40 MLOAD DUP1 SWAP2 SUB SWAP1 LOG3 PUSH1 0x7 SLOAD PUSH1 0x1 PUSH1 0x1 PUSH1 0xA0 SHL SUB AND PUSH1 0x0 SWAP1 DUP2 MSTORE PUSH1 0x1 PUSH1 0x20 MSTORE PUSH1 0x40 SWAP1 KECCAK256 SLOAD PUSH2 0xAC5 SWAP1 DUP3 PUSH2 0xBA9 JUMP JUMPDEST PUSH1 0x7 DUP1 SLOAD PUSH1 0x1 PUSH1 0x1 PUSH1 0xA0 SHL SUB SWAP1 DUP2 AND PUSH1 0x0 SWAP1 DUP2 MSTORE PUSH1 0x1 PUSH1 0x20 SWAP1 DUP2 MSTORE PUSH1 0x40 SWAP2 DUP3 SWAP1 KECCAK256 SWAP5 SWAP1 SWAP5 SSTORE SWAP2 SLOAD SWAP2 MLOAD DUP5 DUP2 MSTORE SWAP2 DUP2 AND SWAP3 SWAP1 DUP8 AND SWAP2 PUSH1 0x0 DUP1 MLOAD PUSH1 0x20 PUSH2 0x10B6 DUP4 CODECOPY DUP2 MLOAD SWAP2 MSTORE SWAP2 ADD PUSH1 0x40 MLOAD DUP1 SWAP2 SUB SWAP1 LOG3 POP POP POP POP JUMP JUMPDEST PUSH1 0x1 PUSH1 0x1 PUSH1 0xA0 SHL SUB DUP3 AND PUSH1 0x0 SWAP1 DUP2 MSTORE PUSH1 0x1 PUSH1 0x20 MSTORE PUSH1 0x40 SWAP1 KECCAK256 SLOAD PUSH2 0xB3B SWAP1 DUP3 PUSH2 0xBA9 JUMP JUMPDEST PUSH1 0x1 PUSH1 0x1 PUSH1 0xA0 SHL SUB DUP1 DUP5 AND PUSH1 0x0 DUP2 DUP2 MSTORE PUSH1 0x1 PUSH1 0x20 MSTORE PUSH1 0x40 SWAP1 DUP2 SWAP1 KECCAK256 SWAP4 SWAP1 SWAP4 SSTORE SWAP2 MLOAD SWAP1 DUP6 AND SWAP1 PUSH1 0x0 DUP1 MLOAD PUSH1 0x20 PUSH2 0x10B6 DUP4 CODECOPY DUP2 MLOAD SWAP2 MSTORE SWAP1 PUSH2 0x8D7 SWAP1 DUP6 DUP2 MSTORE PUSH1 0x20 ADD SWAP1 JUMP JUMPDEST PUSH1 0x0 DUP2 DUP5 DUP5 GT ISZERO PUSH2 0xBA1 JUMPI PUSH1 0x40 MLOAD PUSH3 0x461BCD PUSH1 0xE5 SHL DUP2 MSTORE PUSH1 0x4 ADD PUSH2 0x424 SWAP2 SWAP1 PUSH2 0xED6 JUMP JUMPDEST POP POP POP SWAP1 SUB SWAP1 JUMP JUMPDEST PUSH1 0x0 PUSH2 0xBB5 DUP3 DUP5 PUSH2 0xFA6 JUMP JUMPDEST SWAP4 SWAP3 POP POP POP JUMP JUMPDEST PUSH1 0x1 PUSH1 0x1 PUSH1 0xA0 SHL SUB DUP3 AND PUSH2 0xC1C JUMPI PUSH1 0x40 MLOAD PUSH3 0x461BCD PUSH1 0xE5 SHL DUP2 MSTORE PUSH1 0x20 PUSH1 0x4 DUP3 ADD MSTORE PUSH1 0x21 PUSH1 0x24 DUP3 ADD MSTORE PUSH32 0x42455032303A206275726E2066726F6D20746865207A65726F20616464726573 PUSH1 0x44 DUP3 ADD MSTORE PUSH1 0x73 PUSH1 0xF8 SHL PUSH1 0x64 DUP3 ADD MSTORE PUSH1 0x84 ADD PUSH2 0x424 JUMP JUMPDEST PUSH2 0xC59 DUP2 PUSH1 0x40 MLOAD DUP1 PUSH1 0x60 ADD PUSH1 0x40 MSTORE DUP1 PUSH1 0x22 DUP2 MSTORE PUSH1 0x20 ADD PUSH2 0x10FB PUSH1 0x22 SWAP2 CODECOPY PUSH1 0x1 PUSH1 0x1 PUSH1 0xA0 SHL SUB DUP6 AND PUSH1 0x0 SWAP1 DUP2 MSTORE PUSH1 0x1 PUSH1 0x20 MSTORE PUSH1 0x40 SWAP1 KECCAK256 SLOAD SWAP2 SWAP1 PUSH2 0xB7D JUMP JUMPDEST PUSH1 0x1 PUSH1 0x1 PUSH1 0xA0 SHL SUB DUP4 AND PUSH1 0x0 SWAP1 DUP2 MSTORE PUSH1 0x1 PUSH1 0x20 MSTORE PUSH1 0x40 SWAP1 KECCAK256 SSTORE PUSH1 0x3 SLOAD PUSH2 0xC7F SWAP1 DUP3 PUSH2 0xDE6 JUMP JUMPDEST PUSH1 0x3 SSTORE PUSH1 0x40 MLOAD DUP2 DUP2 MSTORE PUSH1 0x0 SWAP1 PUSH1 0x1 PUSH1 0x1 PUSH1 0xA0 SHL SUB DUP5 AND SWAP1 PUSH1 0x0 DUP1 MLOAD PUSH1 0x20 PUSH2 0x10B6 DUP4 CODECOPY DUP2 MLOAD SWAP2 MSTORE SWAP1 PUSH1 0x20 ADD JUMPDEST PUSH1 0x40 MLOAD DUP1 SWAP2 SUB SWAP1 LOG3 POP POP JUMP JUMPDEST PUSH1 0x0 DUP1 SLOAD PUSH1 0x1 PUSH1 0x1 PUSH1 0xA0 SHL SUB DUP4 DUP2 AND PUSH1 0x1 PUSH1 0x1 PUSH1 0xA0 SHL SUB NOT DUP4 AND DUP2 OR DUP5 SSTORE PUSH1 0x40 MLOAD SWAP2 SWAP1 SWAP3 AND SWAP3 DUP4 SWAP2 PUSH32 0x8BE0079C531659141344CD1FD0A4F28419497F9722A3DAAFE3B4186F6B6457E0 SWAP2 SWAP1 LOG3 POP POP JUMP JUMPDEST PUSH1 0x1 PUSH1 0x1 PUSH1 0xA0 SHL SUB DUP3 AND PUSH2 0xD5C JUMPI PUSH1 0x40 MLOAD PUSH3 0x461BCD PUSH1 0xE5 SHL DUP2 MSTORE PUSH1 0x20 PUSH1 0x4 DUP3 ADD MSTORE PUSH1 0x1F PUSH1 0x24 DUP3 ADD MSTORE PUSH32 0x42455032303A206D696E7420746F20746865207A65726F206164647265737300 PUSH1 0x44 DUP3 ADD MSTORE PUSH1 0x64 ADD PUSH2 0x424 JUMP JUMPDEST PUSH1 0x3 SLOAD PUSH2 0xD69 SWAP1 DUP3 PUSH2 0xBA9 JUMP JUMPDEST PUSH1 0x3 SSTORE PUSH1 0x1 PUSH1 0x1 PUSH1 0xA0 SHL SUB DUP3 AND PUSH1 0x0 SWAP1 DUP2 MSTORE PUSH1 0x1 PUSH1 0x20 MSTORE PUSH1 0x40 SWAP1 KECCAK256 SLOAD PUSH2 0xD8F SWAP1 DUP3 PUSH2 0xBA9 JUMP JUMPDEST PUSH1 0x1 PUSH1 0x1 PUSH1 0xA0 SHL SUB DUP4 AND PUSH1 0x0 DUP2 DUP2 MSTORE PUSH1 0x1 PUSH1 0x20 MSTORE PUSH1 0x40 DUP1 DUP3 KECCAK256 SWAP4 SWAP1 SWAP4 SSTORE SWAP2 MLOAD SWAP1 SWAP2 SWAP1 PUSH1 0x0 DUP1 MLOAD PUSH1 0x20 PUSH2 0x10B6 DUP4 CODECOPY DUP2 MLOAD SWAP2 MSTORE SWAP1 PUSH2 0xCAA SWAP1 DUP6 DUP2 MSTORE PUSH1 0x20 ADD SWAP1 JUMP JUMPDEST PUSH1 0x0 PUSH2 0xBB5 DUP3 DUP5 PUSH2 0xFE0 JUMP JUMPDEST PUSH1 0x0 PUSH2 0xBB5 DUP3 DUP5 PUSH2 0xFBE JUMP JUMPDEST PUSH1 0x0 PUSH2 0xBB5 DUP3 DUP5 PUSH2 0xFFF JUMP JUMPDEST DUP1 CALLDATALOAD PUSH1 0x1 PUSH1 0x1 PUSH1 0xA0 SHL SUB DUP2 AND DUP2 EQ PUSH2 0x5F1 JUMPI PUSH1 0x0 DUP1 REVERT JUMPDEST PUSH1 0x0 PUSH1 0x20 DUP3 DUP5 SUB SLT ISZERO PUSH2 0xE1B JUMPI PUSH1 0x0 DUP1 REVERT JUMPDEST PUSH2 0xBB5 DUP3 PUSH2 0xDF2 JUMP JUMPDEST PUSH1 0x0 DUP1 PUSH1 0x40 DUP4 DUP6 SUB SLT ISZERO PUSH2 0xE37 JUMPI PUSH1 0x0 DUP1 REVERT JUMPDEST PUSH2 0xE40 DUP4 PUSH2 0xDF2 JUMP JUMPDEST SWAP2 POP PUSH2 0xE4E PUSH1 0x20 DUP5 ADD PUSH2 0xDF2 JUMP JUMPDEST SWAP1 POP SWAP3 POP SWAP3 SWAP1 POP JUMP JUMPDEST PUSH1 0x0 DUP1 PUSH1 0x0 PUSH1 0x60 DUP5 DUP7 SUB SLT ISZERO PUSH2 0xE6C JUMPI PUSH1 0x0 DUP1 REVERT JUMPDEST PUSH2 0xE75 DUP5 PUSH2 0xDF2 JUMP JUMPDEST SWAP3 POP PUSH2 0xE83 PUSH1 0x20 DUP6 ADD PUSH2 0xDF2 JUMP JUMPDEST SWAP2 POP PUSH1 0x40 DUP5 ADD CALLDATALOAD SWAP1 POP SWAP3 POP SWAP3 POP SWAP3 JUMP JUMPDEST PUSH1 0x0 DUP1 PUSH1 0x40 DUP4 DUP6 SUB SLT ISZERO PUSH2 0xEA6 JUMPI PUSH1 0x0 DUP1 REVERT JUMPDEST PUSH2 0xEAF DUP4 PUSH2 0xDF2 JUMP JUMPDEST SWAP5 PUSH1 0x20 SWAP4 SWAP1 SWAP4 ADD CALLDATALOAD SWAP4 POP POP POP JUMP JUMPDEST PUSH1 0x0 PUSH1 0x20 DUP3 DUP5 SUB SLT ISZERO PUSH2 0xECF JUMPI PUSH1 0x0 DUP1 REVERT JUMPDEST POP CALLDATALOAD SWAP2 SWAP1 POP JUMP JUMPDEST PUSH1 0x0 PUSH1 0x20 DUP1 DUP4 MSTORE DUP4 MLOAD DUP1 DUP3 DUP6 ADD MSTORE PUSH1 0x0 JUMPDEST DUP2 DUP2 LT ISZERO PUSH2 0xF03 JUMPI DUP6 DUP2 ADD DUP4 ADD MLOAD DUP6 DUP3 ADD PUSH1 0x40 ADD MSTORE DUP3 ADD PUSH2 0xEE7 JUMP JUMPDEST DUP2 DUP2 GT ISZERO PUSH2 0xF15 JUMPI PUSH1 0x0 PUSH1 0x40 DUP4 DUP8 ADD ADD MSTORE JUMPDEST POP PUSH1 0x1F ADD PUSH1 0x1F NOT AND SWAP3 SWAP1 SWAP3 ADD PUSH1 0x40 ADD SWAP4 SWAP3 POP POP POP JUMP JUMPDEST PUSH1 0x20 DUP1 DUP3 MSTORE DUP2 DUP2 ADD MSTORE PUSH32 0x4F776E61626C653A2063616C6C6572206973206E6F7420746865206F776E6572 PUSH1 0x40 DUP3 ADD MSTORE PUSH1 0x60 ADD SWAP1 JUMP JUMPDEST PUSH1 0x20 DUP1 DUP3 MSTORE PUSH1 0x26 SWAP1 DUP3 ADD MSTORE PUSH32 0x4572726F723A207472616E736665722066726F6D20626C61636B6C6973742061 PUSH1 0x40 DUP3 ADD MSTORE PUSH6 0x646472657373 PUSH1 0xD0 SHL PUSH1 0x60 DUP3 ADD MSTORE PUSH1 0x80 ADD SWAP1 JUMP JUMPDEST PUSH1 0x0 DUP3 NOT DUP3 GT ISZERO PUSH2 0xFB9 JUMPI PUSH2 0xFB9 PUSH2 0x1051 JUMP JUMPDEST POP ADD SWAP1 JUMP JUMPDEST PUSH1 0x0 DUP3 PUSH2 0xFDB JUMPI PUSH4 0x4E487B71 PUSH1 0xE0 SHL PUSH1 0x0 MSTORE PUSH1 0x12 PUSH1 0x4 MSTORE PUSH1 0x24 PUSH1 0x0 REVERT JUMPDEST POP DIV SWAP1 JUMP JUMPDEST PUSH1 0x0 DUP2 PUSH1 0x0 NOT DIV DUP4 GT DUP3 ISZERO ISZERO AND ISZERO PUSH2 0xFFA JUMPI PUSH2 0xFFA PUSH2 0x1051 JUMP JUMPDEST POP MUL SWAP1 JUMP JUMPDEST PUSH1 0x0 DUP3 DUP3 LT ISZERO PUSH2 0x1011 JUMPI PUSH2 0x1011 PUSH2 0x1051 JUMP JUMPDEST POP SUB SWAP1 JUMP JUMPDEST PUSH1 0x1 DUP2 DUP2 SHR SWAP1 DUP3 AND DUP1 PUSH2 0x102A JUMPI PUSH1 0x7F DUP3 AND SWAP2 POP JUMPDEST PUSH1 0x20 DUP3 LT DUP2 EQ ISZERO PUSH2 0x104B JUMPI PUSH4 0x4E487B71 PUSH1 0xE0 SHL PUSH1 0x0 MSTORE PUSH1 0x22 PUSH1 0x4 MSTORE PUSH1 0x24 PUSH1 0x0 REVERT JUMPDEST POP SWAP2 SWAP1 POP JUMP JUMPDEST PUSH4 0x4E487B71 PUSH1 0xE0 SHL PUSH1 0x0 MSTORE PUSH1 0x11 PUSH1 0x4 MSTORE PUSH1 0x24 PUSH1 0x0 REVERT INVALID TIMESTAMP GASLIMIT POP ORIGIN ADDRESS GASPRICE KECCAK256 PUSH21 0x72616E7366657220616D6F756E7420657863656564 PUSH20 0x20616C6C6F77616E636542455032303A20747261 PUSH15 0x7366657220616D6F756E7420657863 PUSH6 0x656473206261 PUSH13 0x616E6365DDF252AD1BE2C89B69 0xC2 0xB0 PUSH9 0xFC378DAA952BA7F163 0xC4 LOG1 AND 0x28 CREATE2 GAS 0x4D CREATE2 0x23 0xB3 0xEF TIMESTAMP GASLIMIT POP ORIGIN ADDRESS GASPRICE KECCAK256 PUSH5 0x6563726561 PUSH20 0x656420616C6C6F77616E63652062656C6F77207A PUSH6 0x726F42455032 ADDRESS GASPRICE KECCAK256 PUSH3 0x75726E KECCAK256 PUSH2 0x6D6F PUSH22 0x6E7420657863656564732062616C616E6365A2646970 PUSH7 0x73582212208F71 NUMBER PUSH32 0x442DAA7037D9300683F7D3CDC49CE3475C2DADC381403EBE07359FFB64736F6C PUSH4 0x43000807 STOP CALLER "
				},
				"gasEstimates": {
					"creation": {
						"codeDepositCost": "886800",
						"executionCost": "infinite",
						"totalCost": "infinite"
					},
					"external": {
						"_decimals()": "2336",
						"_name()": "infinite",
						"_symbol()": "infinite",
						"addToBlackList(address)": "26817",
						"allowance(address,address)": "infinite",
						"approve(address,uint256)": "24643",
						"balanceOf(address)": "2670",
						"burn(uint256)": "infinite",
						"decimals()": "2408",
						"decreaseAllowance(address,uint256)": "infinite",
						"getOwner()": "2365",
						"increaseAllowance(address,uint256)": "27022",
						"managerWallet()": "2470",
						"mint(uint256)": "infinite",
						"name()": "infinite",
						"owner()": "2398",
						"removeFromBlackList(address)": "26855",
						"renounceOwnership()": "28137",
						"symbol()": "infinite",
						"totalSupply()": "2349",
						"transfer(address,uint256)": "infinite",
						"transferFrom(address,address,uint256)": "infinite",
						"transferOwnership(address)": "28441"
					},
					"internal": {
						"_approve(address,address,uint256)": "infinite",
						"_burn(address,uint256)": "infinite",
						"_burnFrom(address,uint256)": "infinite",
						"_mint(address,uint256)": "infinite",
						"_transfer(address,address,uint256)": "infinite"
					}
				},
				"methodIdentifiers": {
					"_decimals()": "32424aa3",
					"_name()": "d28d8852",
					"_symbol()": "b09f1266",
					"addToBlackList(address)": "417c73a7",
					"allowance(address,address)": "dd62ed3e",
					"approve(address,uint256)": "095ea7b3",
					"balanceOf(address)": "70a08231",
					"burn(uint256)": "42966c68",
					"decimals()": "313ce567",
					"decreaseAllowance(address,uint256)": "a457c2d7",
					"getOwner()": "893d20e8",
					"increaseAllowance(address,uint256)": "39509351",
					"managerWallet()": "a2179ab0",
					"mint(uint256)": "a0712d68",
					"name()": "06fdde03",
					"owner()": "8da5cb5b",
					"removeFromBlackList(address)": "4a49ac4c",
					"renounceOwnership()": "715018a6",
					"symbol()": "95d89b41",
					"totalSupply()": "18160ddd",
					"transfer(address,uint256)": "a9059cbb",
					"transferFrom(address,address,uint256)": "23b872dd",
					"transferOwnership(address)": "f2fde38b"
				}
			},
			"userdoc": {
				"kind": "user",
				"methods": {},
				"version": 1
			}
		}
	}
}